:020000040800F2
:1000000000000220C5130008E1110008E3110008F8
:10001000E5110008E7110008E911000800000000E0
:10002000000000000000000000000000513A00083D
:10003000EB11000800000000F13A0008553B0008F1
:1000400015140008151400081514000815140008EC
:1000500015140008151400081514000815140008DC
:1000600015140008151400081514000815140008CC
:1000700015140008151400081514000815140008BC
:1000800015140008ED1100081514000815140008D7
:10009000151400081514000815140008151400089C
:1000A000151400081514000815140008151400088C
:1000B0001514000815140008FD1100081514000897
:1000C000151400081514000815140008151400086C
:1000D00015140008151400080D1200081514000866
:1000E000151400081514000815140008151400084C
:1000F000151400081514000815140008151400083C
:10010000151400081514000815140008151400082B
:10011000151400081514000815140008151400081B
:10012000151400081514000815140008151400080B
:1001300015140008151400081514000815140008FB
:1001400015140008151400081514000815140008EB
:1001500015140008151400081514000815140008DB
:1001600015140008151400081514000815140008CB
:1001700015140008151400081514000800000000EC
:08018000151400081514000815
:1001900081F0004102E000BF83F0004330B54FEA38
:1001A00041044FEA430594EA050F08BF90EA020FA5
:1001B0001FBF54EA000C55EA020C7FEA645C7FEA38
:1001C000655C00F0E2804FEA5454D4EB5555B8BF5B
:1001D0006D420CDD2C4480EA020281EA030382EACC
:1001E000000083EA010180EA020281EA0303362D5E
:1001F00088BF30BD11F0004F4FEA01314FF4801C31
:100200004CEA113102D0404261EB410113F0004F42
:100210004FEA03334CEA133302D0524263EB4303F9
:1002200094EA050F00F0A780A4F10104D5F1200E97
:100230000DDB02FA0EFC22FA05F2801841F10001F2
:1002400003FA0EF2801843FA05F359410EE0A5F1C6
:1002500020050EF1200E012A03FA0EFC28BF4CF0F7
:10026000020C43FA05F3C01851EBE37101F00045AD
:1002700007D54FF0000EDCF1000C7EEB00006EEBBA
:100280000101B1F5801F1BD3B1F5001F0CD3490844
:100290005FEA30004FEA3C0C04F101044FEA44529B
:1002A00012F5800F80F09A80BCF1004F08BF5FEA22
:1002B000500C50F1000041EB045141EA050130BD02
:1002C0005FEA4C0C404141EB0101013C28BFB1F514
:1002D000801FE9D291F0000F04BF01460020B1FA5F
:1002E00081F308BF2033A3F10B03B3F120020CDA32
:1002F0000C3208DD02F1140CC2F10C0201FA0CF010
:1003000021FA02F10CE002F11402D8BFC2F1200C74
:1003100001FA02F120FA0CFCDCBF41EA0C0190402A
:10032000E41AA2BF01EB0451294330BD6FEA040473
:100330001F3C1CDA0C340EDC04F11404C4F120025E
:1003400020FA04F001FA02F340EA030021FA04F370
:1003500045EA030130BDC4F10C04C4F1200220FAC7
:1003600002F001FA04F340EA0300294630BD21FA05
:1003700004F0294630BD94F0000F83F4801306BFCB
:1003800081F480110134013D4EE77FEA645C18BFBF
:100390007FEA655C29D094EA050F08BF90EA020F56
:1003A00005D054EA000C04BF1946104630BD91EA4E
:1003B000030F1EBF0021002030BD5FEA545C05D151
:1003C0004000494128BF41F0004130BD14F5800490
:1003D0003CBF01F5801130BD01F0004545F0FE4104
:1003E00041F470014FF0000030BD7FEA645C1ABF39
:1003F000194610467FEA655C1CBF0B46024650EA70
:10040000013406BF52EA033591EA030F41F400219B
:1004100030BD00BF90F0000F04BF0021704730B521
:100420004FF4806404F132044FF000054FF00001F6
:1004300050E700BF90F0000F04BF0021704730B5B7
:100440004FF4806404F1320410F0004548BF40428C
:100450004FF000013EE700BF42004FEAE2014FEAE1
:1004600031014FEA02701FBF12F07F4393F07F4FBC
:1004700081F06051704732F07F4208BF704793F0BF
:100480007F4F04BF41F40021704730B54FF46074D2
:1004900001F0004521F000411CE700BF50EA0102D5
:1004A00008BF704730B54FF000050AE050EA01027E
:1004B00008BF704730B511F0004502D5404261EBEE
:1004C00041014FF4806404F132045FEA915C3FF42F
:1004D000D8AE4FF003025FEADC0C18BF03325FEACC
:1004E000DC0C18BF033202EBDC02C2F1200300FA7D
:1004F00003FC20FA02F001FA03FE40EA0E0021FAA2
:1005000002F11444BDE600BF70B54FF0FF0C4CF48F
:10051000E06C1CEA11541DBF1CEA135594EA0C0F41
:1005200095EA0C0F00F0DEF82C4481EA030621EA7C
:100530004C5123EA4C5350EA013518BF52EA0335B7
:1005400041F4801143F4801338D0A0FB02CE4FF069
:100550000005E1FB02E506F00042E0FB03E54FF099
:100560000006E1FB03569CF0000F18BF4EF0010E91
:10057000A4F1FF04B6F5007F64F5407404D25FEA8D
:100580004E0E6D4146EB060642EAC62141EA555140
:100590004FEAC52040EA5E504FEACE2EB4F1FD0C82
:1005A00088BFBCF5E06F1ED8BEF1004F08BF5FEA00
:1005B000500E50F1000041EB045170BD06F00046B2
:1005C00046EA010140EA020081EA0301B4EB5C045F
:1005D000C2BFD4EB0C0541EA045170BD41F4801157
:1005E0004FF0000E013C00F3AB8014F1360FDEBF7C
:1005F000002001F0004170BDC4F10004203C35DA58
:100600000C341BDC04F11404C4F1200500FA05F3DA
:1006100020FA04F001FA05F240EA020001F000427B
:1006200021F0004110EBD37021FA04F642EB0601F1
:100630005EEA430E08BF20EAD37070BDC4F10C041B
:10064000C4F1200500FA04F320FA05F001FA04F2DF
:1006500040EA020001F0004110EBD37041F10001CB
:100660005EEA430E08BF20EAD37070BDC4F12005D6
:1006700000FA05F24EEA020E20FA04F301FA05F23E
:1006800043EA020321FA04F001F0004121FA04F2E6
:1006900020EA020000EBD3705EEA430E08BF20EAB6
:1006A000D37070BD94F0000F0FD101F000464000F0
:1006B00041EB010111F4801F08BF013CF7D041EA72
:1006C000060195F0000F18BF704703F00046520076
:1006D00043EB030313F4801F08BF013DF7D043EA47
:1006E0000603704794EA0C0F0CEA135518BF95EAFD
:1006F0000C0F0CD050EA410618BF52EA4306D1D184
:1007000081EA030101F000414FF0000070BD50EAA2
:10071000410606BF1046194652EA430619D094EA2C
:100720000C0F02D150EA013613D195EA0C0F05D116
:1007300052EA03361CBF104619460AD181EA03016A
:1007400001F0004141F0FE4141F470014FF0000022
:1007500070BD41F0FE4141F4780170BD70B54FF0BD
:10076000FF0C4CF4E06C1CEA11541DBF1CEA13553D
:1007700094EA0C0F95EA0C0F00F0A7F8A4EB05041F
:1007800081EA030E52EA03354FEA013100F0888016
:100790004FEA03334FF0805545EA131343EA1263DF
:1007A0004FEA022245EA111545EA10654FEA002694
:1007B0000EF000419D4208BF964244F1FD0404F54D
:1007C000407402D25B084FEA3202B61A65EB0305A9
:1007D0005B084FEA32024FF480104FF4002CB6EB66
:1007E000020E75EB030E22BFB61A754640EA0C00E6
:1007F0005B084FEA3202B6EB020E75EB030E22BF26
:10080000B61A754640EA5C005B084FEA3202B6EB66
:10081000020E75EB030E22BFB61A754640EA9C0025
:100820005B084FEA3202B6EB020E75EB030E22BFF5
:10083000B61A754640EADC0055EA060E18D04FEAB3
:10084000051545EA16754FEA06164FEAC30343EA53
:1008500052734FEAC2025FEA1C1CC0D111F4801F20
:100860000BD141EA00014FF000004FF0004CB6E719
:1008700011F4801F04BF01430020B4F1FD0C88BFB8
:10088000BCF5E06F3FF6AFAEB5EB030C04BFB6EBC3
:10089000020C5FEA500C50F1000041EB045170BDB6
:1008A0000EF0004E4EEA113114EB5C04C2BFD4EBE3
:1008B0000C0541EA045170BD41F480114FF0000E67
:1008C000013C90E645EA060E8DE60CEA135594EAE3
:1008D0000C0F08BF95EA0C0F3FF43BAF94EA0C0FE6
:1008E0000AD150EA01347FF434AF95EA0C0F7FF45B
:1008F00025AF104619462CE795EA0C0F06D152EAAF
:1009000003353FF4FDAE1046194622E750EA410692
:1009100018BF52EA43067FF4C5AE50EA41047FF4A3
:100920000DAF52EA43057FF4EBAE12E74FEA410206
:10093000B2F1E04324BFB3F5001CDCF1FE5C0DD93D
:1009400001F0004C4FEAC0024CEA5070B2F1004F87
:1009500040EB830008BF20F00100704711F0804F8A
:1009600021D113F13872BCBF01F00040704741F44F
:1009700080114FEA5252C2F11802C2F1200C10FA53
:100980000CF320FA02F018BF40F001004FEAC12337
:100990004FEAD32303FA0CFC40EA0C0023FA02F3DB
:1009A0004FEA4303CCE77FEA625307D150EA0133B1
:1009B0001EBF4FF0FE4040F44000704701F0004081
:1009C00040F0FE4040F40000704700BF53B94AB900
:1009D000002908BF00281CBF4FF0FF314FF0FF3047
:1009E00000F00CB8ADF1080C6DE904CE05F0BAF8D2
:1009F000DDF804E0DDE9022304B07047704700BF72
:100A0000844641EA000313F003036DD1403A41D319
:100A100051F8043B40F8043B51F8043B40F8043BD8
:100A200051F8043B40F8043B51F8043B40F8043BC8
:100A300051F8043B40F8043B51F8043B40F8043BB8
:100A400051F8043B40F8043B51F8043B40F8043BA8
:100A500051F8043B40F8043B51F8043B40F8043B98
:100A600051F8043B40F8043B51F8043B40F8043B88
:100A700051F8043B40F8043B51F8043B40F8043B78
:100A800051F8043B40F8043B51F8043B40F8043B68
:100A9000403ABDD2303211D351F8043B40F8043B08
:100AA00051F8043B40F8043B51F8043B40F8043B48
:100AB00051F8043B40F8043B103AEDD20C3205D318
:100AC00051F8043B40F8043B043AF9D2043208D010
:100AD000D2071CBF11F8013B00F8013B01D30B8882
:100AE00003806046704700BF082A13D38B078DD060
:100AF00010F003038AD0C3F10403D21ADB071CBF32
:100B000011F8013B00F8013B80D331F8023B20F89B
:100B1000023B7BE7043AD9D3013A11F8013B00F8D4
:100B2000013BF9D20B7803704B7843708B7883705C
:100B3000604670470348044B834202D0034B03B125
:100B4000184770471800002018000020000000001F
:100B50000548064B1B1AD90F01EBA301491002D01F
:100B6000034B03B1184770471800002018000020FD
:100B70000000000010B5064C237843B9FFF7DAFFF8
:100B8000044B13B10448AFF300800123237010BD60
:100B90001800002000000000E45F000808B5054BC5
:100BA0001BB105490548AFF30080BDE80840FFF7D9
:100BB000CFBF00BF000000001C000020E45F000861
:100BC00000B583B000220192094B196B41F400116A
:100BD00019631B6B03F400130193019B0521112082
:100BE00000F09AFC112000F0A7FC03B05DF804FBB4
:100BF0000038024008B5012002F084FEFBE7000047
:100C0000034B0360034B0B6080231360704700BFEE
:100C1000340200203400002010B596B01B4C0DF1BA
:100C20003C0CA646BEE80F00ACE80F009EE80700AB
:100C30008CE8070000210FA802F031FE144B186069
:100C40000DF1200C04F11C0EBEE80F00ACE80F0003
:100C50009EE807008CE80700002108A802F01FFEAC
:100C60000C4B18600DF1040E04F1380CBCE80F00B9
:100C7000AEE80F009CE807008EE80700002101A8FD
:100C800002F00DFE044B186016B010BDFC5F0008AA
:100C9000900200208C020020880200202DE9F04301
:100CA0008DB000220792089209920A920B9201924B
:100CB000394B196B41F080011963196B01F0800108
:100CC000019101990292196B41F001011963196BAD
:100CD00001F00101029102990392196B41F00401A4
:100CE0001963196B01F00401039103990492196BC4
:100CF00041F010011963196B01F01001049104997E
:100D00000592196B41F002011963196B01F00201A0
:100D10000591059906921A6B42F008021A631B6B43
:100D200003F008030693069BDFF878900122302138
:100D3000484600F05DFF194F01223021384600F08F
:100D400057FF174E01224FF44051304600F050FF3C
:100D50004FF03008CDF81C80012408940994032535
:100D60000A9507A9484600F04DFECDF81C8008946E
:100D700009940A9507A9384600F044FE4FF4405301
:100D80000793089409940A9507A9304600F03AFEA3
:100D90000DB0BDE8F08300BF0038024000080240FB
:100DA000001002400000024008B50B480B4B0360E6
:100DB0000B4B436000238360C3604FF480420261A9
:100DC00043618361C361036201F006F900B908BDA4
:100DD00000F016F9FBE700BF3C0300200054004080
:100DE000801A060008B50B480B4B03600B4B4360A1
:100DF00000238360C3604FF48042026143618361DA
:100E0000C361036201F0E8F800B908BD00F0F8F82A
:100E1000FBE700BFE802002000580040801A0600EF
:100E200008B50B480B4B03600B4B436000238360FA
:100E3000C3604FF48042026143618361C361036216
:100E400001F0CAF800B908BD00F0DAF8FBE700BF0E
:100E500094020020005C0040801A06002DE9F04357
:100E60008DB000230793089309930A930B930368AB
:100E70004B4A934208D04B4A93422AD04A4A934263
:100E80004DD00DB0BDE8F08300250095474C236B95
:100E900043F002032363236B03F002030093009BE0
:100EA000C0230793122308930123099303230A9372
:100EB00004230B9307A93E4800F0A4FD0195236C81
:100EC00043F400132364236C03F400130193019B88
:100ED000D7E700250295354C236B43F002032363CB
:100EE000236B03F002030293029B4FF440630793CA
:100EF000122308930123099303230A9304230B93DA
:100F000007A92B4800F07EFD0395236C43F4800372
:100F10002364236C03F480030393039BB1E7002550
:100F20000495224C236B43F004032363236B03F0EB
:100F300004030493049B0595236B43F0010323638F
:100F4000236B03F001030593059B4FF40073079394
:100F50004FF01209CDF820904FF00108CDF8248011
:100F600003270A9704260B9607A9124800F04AFDAA
:100F70004FF480730793CDF82090CDF824800A9722
:100F80000B9607A90C4800F03DFD0695236C43F431
:100F900000032364236C03F400030693069B70E7AD
:100FA0000054004000580040005C004000380240FF
:100FB00000040240000802400000024010B5044650
:100FC00002F058FD4FF080435A6A02E09B1AA34298
:100FD00007D24FF080435B6A9A42F7D99B1A013BD4
:100FE000F5E702F069FD10BD08B50268034B9A42AF
:100FF00000D008BD00F02AFAFBE700BF000800405F
:1010000072B6FEE700B595B03022002108A804F0C2
:1010100007FF00230393049305930693079301931B
:10102000214A116C41F080511164126C02F080521F
:101030000192019A02931D4B1A6842F480421A6091
:101040001B6803F480430293029B012308934FF42F
:101050008033099302230E934FF480020F921922DA
:1010600010924FF4A872119212930423139308A8BC
:1010700001F00CFA98B90F23039302230493002381
:1010800005934FF4A05306934FF480530793052123
:1010900003A801F04BFC20B915B05DF804FBFFF785
:1010A000AFFFFFF7ADFF00BF003802400070004007
:1010B00008B500F0B1F9FFF7A5FFFFF7EFFDFFF767
:1010C0007FFD00F005F9FFF76FFEFFF78BFEFFF7DE
:1010D000A7FE00F0ADF800221821052003F006F865
:1010E000044B186020B1FFF797FD02F0D3FBFEE739
:1010F000FFF786FF9003002000B583B00022009226
:101100000D4B596C41F480415964596C01F4804194
:10111000009100990192196C41F0805119641B6C87
:1011200003F080530193019B0F216FF0010000F049
:10113000F3F903B05DF804FB0038024030B589B024
:10114000044600230193214B1A6C42F004021A64F6
:101150001B6C03F004030193019B02A903A801F097
:10116000BBFC069BCBB901F097FC0346184AA2FBD7
:1011700003239B0C013B1748174A026040F2E732F9
:10118000C2604360002303618360836101F094FEC9
:10119000054630B1284609B030BD01F07DFC430062
:1011A000E4E70C4801F024FD05460028F2D11E209A
:1011B00000F0C2F90F2C01D90125EBE700222146EE
:1011C0001E2000F0A9F9054B1C60E3E7003802403F
:1011D00083DE1B4394030020000800400800002029
:1011E000FEE7FEE7FEE7FEE7FEE7704708B50248C8
:1011F00000F01AFB08BD00BF2404002008B5024817
:1012000001F03EFD08BD00BF9403002008B5024870
:1012100002F09EF908BD00BF84040020034AD2F802
:10122000883043F47003C2F88830704700ED00E066
:1012300000B587B0002302930393049305930093B2
:10124000019317484FF0804202605322426083604E
:101250004FF0FF32C2600361836101F02DFEA8B937
:101260004FF48053029302A90D4801F05EFE80B94D
:101270000023009301936946094801F0D5FE58B94F
:10128000074801F077FC07B05DF804FBFFF7B8FEF4
:10129000E6E7FFF7B5FEEBE7FFF7B2FEF0E700BFCA
:1012A000DC0300200368B3F1804F00D0704782B0A8
:1012B00000230193054B1A6C42F001021A641B6C67
:1012C00003F001030193019B02B070470038024014
:1012D00008B50A480A4B03604FF4E133436000232A
:1012E0008360C36003610C2242618361C36101F0CA
:1012F000D9FF00B908BDFFF783FEFBE78404002097
:101300000044004030B589B0002303930493059353
:10131000069307930268274B9A4201D009B030BD6B
:1013200004460025019503F5FA331A6C42F40032A5
:101330001A641A6C02F400320192019A02951A6B37
:1013400042F008021A631B6B03F008030293029B2E
:101350006023039302230493032306930723079335
:1013600003A9154800F04EFB1448154B03604FF0DD
:101370000063436040238360C5604FF48063036172
:1013800045618561C5614FF440330362456200F0F9
:1013900053F958B9094BA3639C6300220521262009
:1013A00000F0BAF8262000F0C7F8B7E7FFF728FEEC
:1013B000F0E700BF00440040000C0240240400207D
:1013C000A0600240DFF834D0FFF728FF0C480D4939
:1013D0000D4A002302E0D458C4500433C4188C4290
:1013E000F9D30A4A0A4C002301E013600432A242F6
:1013F000FBD304F067FDFFF75BFE7047000002209F
:101400000000002018000020B4630008180000202D
:1014100010090120FEE7000008B50B4B1A6842F4E2
:1014200000721A601A6842F480621A601A6842F404
:1014300080721A60032000F05DF80F20FFF77EFE37
:10144000FFF75AFE002008BD003C0240034A116825
:10145000034B1B780B441360704700BFCC04002083
:1014600004000020014B1868704700BFCC04002026
:10147000002807DB00F01F02400901239340024AC5
:1014800042F82030704700BF00E100E0002808DB90
:101490000901C9B200F1604000F5614080F8001315
:1014A000704700F00F000901C9B2014B1954704791
:1014B00014ED00E000B500F00700C0F1070CBCF12E
:1014C000040F28BF4FF0040C031D062B0FD9C31EB9
:1014D0004FF0FF3E0EFA0CF021EA000199400EFA9F
:1014E00003FE22EA0E0241EA02005DF804FB00233B
:1014F000EEE70000074AD36823F4E0631B041B0CEB
:10150000000200F4E060034343F0BF6343F40033A0
:10151000D360704700ED00E010B50446054BD86875
:10152000C0F30220FFF7C6FF01462046FFF7AEFFDB
:1015300010BD00BF00ED00E008B5FFF799FF08BD42
:1015400030B405682C6824F480242C60046863603F
:101550008368402B05D0036899600368DA6030BC6B
:10156000704703689A600368D960F8E710B40368AD
:10157000D9B210390A4AA2FB01421209094CA25CF5
:10158000C2655F2907D96FF3090304338365806D52
:101590005DF8044B70476FF309038365F7E700BFFD
:1015A000ABAAAAAA98600008836A826992B9012B43
:1015B0000AD0022B02D00BB100207047C36A13F08F
:1015C000807F28D100207047C36AB3F1C07F24D048
:1015D00000207047B2F5005F09D0022B25D9032BFC
:1015E00025D1C36A13F0807F23D100207047032BDD
:1015F00003D8DFE803F01404140A00207047C36A1C
:1016000013F0807F0DD100207047C36AB3F1C07F13
:1016100009D0002070470120704701207047012049
:10162000704701207047012070470120704700205B
:10163000704701207047000070B50446FFF712FFA5
:10164000002C5BD00546022384F83530002384F853
:1016500034302268136823F00103136023681A688A
:1016600012F0010F0AD0FFF7FDFE431B052BF5D941
:1016700020236365032084F8350070BD1A68204973
:1016800011406268A0680243E06802432069024397
:1016900060690243A0690243E0690243206A024391
:1016A0000A43616A04291ED01A602668756925F00C
:1016B0000705636A1D43042B07D1A36A1D43E36A30
:1016C0001BB12046FFF770FF90B975612046FFF708
:1016D0004DFFE26D3F23934083600020606501234E
:1016E00084F83530C9E7E16A206B01430A43DBE740
:1016F00040236365012084F83500BEE70120BCE784
:101700003F8010F038B50446856D90F8340001280C
:101710002BD0012084F8340094F83500C0B20128A1
:1017200004D0002384F83430022038BD022084F82D
:101730003500002060652046FFF702FFE26D3F2381
:101740009340AB602268136843F016031360236C68
:1017500023B12268136843F00803136022681368FA
:1017600043F0010313600020DFE70220DDE770B5DE
:101770000446866DFFF776FE94F83530DBB2022B17
:1017800006D080236365002384F83430012070BDC7
:1017900005462268136823F0160313602268536914
:1017A00023F080035361236CE3B12268136823F0B4
:1017B000080313602268136823F001031360236891
:1017C0001B6813F0010F11D0FFF74CFE431B052BD4
:1017D000F5D920236365032084F83500002384F8BD
:1017E0003430D4E7A36C002BDFD1E3E7E26D3F2375
:1017F0009340B360012384F83530002084F834002E
:10180000C5E790F83530DBB2022B03D08023436567
:1018100001207047052380F835300268136823F0F3
:101820000103136000207047F0B583B00446002325
:101830000193724B1D68724BA3FB0535AD0A876D92
:101840003E68C26D08239340334210D003681A6883
:1018500012F0040F0BD01A6822F004021A60C26D55
:1018600008239340BB60436D43F001034365E26D81
:1018700001239340334209D02268526912F0800F4D
:1018800004D0BB60636D43F002036365E26D042323
:101890009340334209D02268126812F0020F04D03C
:1018A000BB60636D43F004036365E26D10239340F6
:1018B000334224D02268126812F0080F1FD0BB6098
:1018C00023681A6812F4802F0DD01B6813F4002FC0
:1018D00004D1236C9BB12046984710E0A36C73B1F0
:1018E000204698470BE01A6812F4807F03D11A68EB
:1018F00022F008021A60236C0BB120469847E26D73
:1019000020239340334255D02268126812F0100F02
:1019100050D0BB6094F83530DBB2052B0ED0236875
:101920001A6812F4802F33D01B6813F4002F2AD1C9
:10193000636C002B3ED0204698473BE0226813683A
:1019400023F0160313602268536923F08003536168
:10195000236CA3B12268136823F008031360E26DBF
:101960003F239340BB60012384F83530002384F883
:101970003430236D002B3FD0204698473CE0A36CC9
:10198000002BE7D1EBE7E36BA3B12046984711E0CA
:101990001A6812F4807F09D11A6822F010021A60C6
:1019A000012384F83530002384F83430E36B0BB125
:1019B00020469847636DFBB1636D13F0010F17D09C
:1019C000052384F835302268136823F0010313607F
:1019D000019B01330193AB4204D823681B6813F0C9
:1019E000010FF5D1012384F83530002384F8343019
:1019F000E36C0BB12046984703B0F0BD0000002017
:101A0000B5814E1B00230F2B00F2E98070B582B028
:101A100065E085684FEA430E032404FA0EF425EAD4
:101A20000405CC6804FA0EF42C438460446824EA6C
:101A300002044A68C2F300129A40224342605CE00A
:101A4000DC08083450F8242003F00705AD004FF0FF
:101A50000F0E0EFA05FE22EA0E0E0A69AA4042EAAD
:101A60000E0240F824205CE0072200E0002202FA87
:101A70000EF22A4302345A4D45F82420594A9468FC
:101A80006FEA0C0224EA0C054E6816F4801F01D0A0
:101A90004CEA0405534CA560E46802EA04054E686C
:101AA00016F4001F01D04CEA04054E4CE560646852
:101AB00002EA04054E6816F4003F01D04CEA040522
:101AC000484C6560246822404D6815F4803F01D081
:101AD0004CEA0402434C226001330F2B7DD80122D3
:101AE0009A400C6804EA020C32EA0404F4D14C680F
:101AF00004F00304013C012C8BD94A6802F0030274
:101B0000032A09D0C4685D000322AA4024EA020423
:101B10008A68AA402243C2604A6802F00302022A8D
:101B20008ED004684FEA430E032202FA0EF224EA32
:101B300002044A6802F0030202FA0EF22243026033
:101B40004A6812F4403FC7D000220192264A546CE2
:101B500044F480445464526C02F480420192019A2D
:101B60009C08A51C1E4A52F8255003F0030E4FEAAC
:101B70008E0E0F2202FA0EF225EA02051B4A90424F
:101B80003FF474AF02F5806290421AD002F5806291
:101B9000904218D002F58062904216D002F5806221
:101BA000904214D002F58062904212D002F5806219
:101BB000904210D002F5806290423FF455AF082267
:101BC00055E7012253E7022251E703224FE704229F
:101BD0004DE705224BE7062249E702B070BD70478A
:101BE00000380140003C0140003802400000024043
:101BF0000AB18161704709048161704703685A69BD
:101C000012F4806F01D1002070476FF480625A6136
:101C100000230363202280F83D2080F83E30026CD0
:101C200042F00402026480F83C30012070472DE944
:101C3000F04106460C46174698463BE0FFF712FC7B
:101C4000069BC01A404502D8B8F1000F32D1012DD1
:101C500018D033689B6924EA03039BB2B3FA83F379
:101C60005B099F4226D100233363202286F83D2062
:101C700086F83E30326C42F02002326486F83C3006
:101C8000012027E033685B6924EA03039BB2B3FABF
:101C900083F35B09E5E733685B6924EA030C1FFA09
:101CA0008CFCBCFA8CFC4FEA5C1C674511D1B8F186
:101CB000FF3FC3D1C4F30745012DECD033689B69C6
:101CC00024EA030C1FFA8CFCBCFA8CFC4FEA5C1C67
:101CD000EBE70020BDE8F0812DE9F84305460E460C
:101CE0009046994653E01A6842F400721A602B68D5
:101CF0006FF480625A6100232B63202285F83D2017
:101D000085F83E302A6C42F004022A6485F83C30A3
:101D100001204AE0FFF7A6FBA0EB0900404502D8EE
:101D2000B8F1000F33D1012F17D02B689B6926EA39
:101D300003039BB2003B18BF012343B300232B6373
:101D4000202285F83D2085F83E302A6C42F02002A2
:101D50002A6485F83C30012027E02B685B6926EA7D
:101D600003039BB2003B18BF0123E6E72B689C6985
:101D700026EA0404A4B2003C18BF0124A4B12B68D5
:101D80005A6912F4806FAED1B8F1FF3FC2D1C6F3E9
:101D90000747012FEAD12B685C6926EA0404A4B244
:101DA000003C18BF0124E9E70020BDE8F88370B5C6
:101DB00004460D46164623685B6913F0800F21D157
:101DC0002046FFF71BFFF8B9B5F1FF3FF3D0FFF74F
:101DD00049FB801BA84201D8002DECD123685B6928
:101DE00013F0800FE7D100232363202284F83D20E5
:101DF00084F83E30226C42F02002226484F83C30A9
:101E0000012000E0002070BD0120FCE72DE9F04733
:101E100084B004460D46164699460C9FDDF8348082
:101E20000268136843F4806313600368196841F41F
:101E300080711960CDF800803B4600224FF00111FF
:101E4000FFF7F5FE70B95FFA85FA236805F0FE0525
:101E50001D6143463A4641492046FFF73DFF68B1C0
:101E6000012008E023681B6813F4807F02D04FF440
:101E700000732364032004B0BDE8F08700230393BC
:101E800023685A6903929B690393039B4246394630
:101E90002046FFF78CFF80B9B9F1010F18D12368F4
:101EA000F6B21E61424639462046FFF780FF68B30E
:101EB000236C042B24D00120DDE7236C042B01D0FC
:101EC0000120D8E72268136843F400731360F7E732
:101ED0002368320A1A61424639462046FFF767FFF7
:101EE00018B92368F6B21E61DCE7236C042B01D01D
:101EF0000120C0E72268136843F400731360F7E71A
:101F00002268136843F400731360D4E722681368EF
:101F100043F480731360CDF800803B4600224FF0FD
:101F200001112046FFF783FE68B922684AF00103D9
:101F3000136143463A4609492046FFF7CDFE002883
:101F400099D0012097E723681B6813F4807F02D0A3
:101F50004FF40073236403208DE700BF02000100EB
:101F600070B504460D46164614E06FF010025A6133
:101F700000232363202284F83D2084F83E30226C25
:101F8000226484F83C30012025E023685B6913F06B
:101F9000400F10D02368586910F0400F1AD15869CB
:101FA00010F0100FE1D1FFF75DFA801BA842ECD8CA
:101FB000002DEFD1E9E700232363202284F83D20A0
:101FC00084F83E30226C42F02002226484F83C30D7
:101FD000012000E0002070BD002800F0CC8070B52A
:101FE000044690F83D30002B77D0242384F83D3010
:101FF0002268136823F0010313602268136843F416
:10200000004313602268136823F40043136000F058
:1020100043FD62685A4B9A4264D85A4B98428CBF2F
:1020200000230123002B40F0A8805749A1FB003179
:102030008B0C25686A6822F03F0242EA91426A608E
:1020400021680A6A22F03F0266684D4DAE424FD8C1
:10205000013313430B622168CA6922F44F4222F014
:10206000FF026568464B9D424CD8431E6D00B3FB92
:10207000F5F3013340F6FC70034278D0C3F30B0351
:102080001A43CA6121680B6823F0C003E269206A21
:10209000024313430B6021688B6823F4034323F04E
:1020A000FF032269E068024313438B602168CB6819
:1020B00023F0FF036269A06902431343CB602268E7
:1020C000136843F00103136000202064202384F888
:1020D0003D30206384F83E0070BD80F83C30FEF750
:1020E000BDFE82E7294B98428CBF0023012399E76C
:1020F0004FF4967505FB03F3254DA5FB03539B0990
:102100000133A6E7A668BEB9431E05EB450CB3FB39
:10211000FCF30133C3F30B03B3FA83F35B0943BB53
:10212000C6B9431E05EB4505B3FBF5F30133C3F315
:102130000B0343F40043A3E7431E05EB850C0CEBB4
:102140008C0CB3FBFCF30133C3F30B03B3FA83F33F
:102150005B09E4E7431E05EB850505EB8505B3FB4D
:10216000F5F30133C3F30B0343F4404388E704233F
:1021700086E7012384E7012070470120ACE700BF18
:10218000A08601007F841E0083DE1B43FF083D0004
:10219000D34D62102DE9F04387B004460F469046B8
:1021A0009946109EFFF75EF9054694F83D00C0B2CF
:1021B000202804D00227384607B0BDE8F0830095F8
:1021C0001923012288492046FFF731FD002840F0FD
:1021D0004D8194F83C30012B00F04A81012384F8B2
:1021E0003C3023681A6812F0010F03D11A6842F0DC
:1021F00001021A602268136823F40063136022232B
:1022000084F83D30402384F83E30002323640E9B45
:102210006362BDF83C306385638D2385734BE36255
:10222000019500964B46424639462046FFF7EEFDA3
:102230000746002840F01E81238D5BB90293236876
:102240005A6902929A690292029A1A6842F40072DA
:102250001A6075E0012B0AD0022B1AD000230593D7
:1022600023685A6905929B690593059B68E022687B
:10227000136823F4806313600023039323685A696F
:1022800003929A690392039A1A6842F400721A60E0
:1022900056E02268136823F4806313602268136891
:1022A00043F4006313600023049323685A69049283
:1022B0009B690493049B43E02A4631462046FFF77E
:1022C0004FFE002840F0D88023681A69636A1A70AC
:1022D000636A01336362238D013B2385638D9BB267
:1022E000013B9BB263852BE00095334600224049B9
:1022F0002046FFF79CFC002840F0C080226813684D
:1023000043F40073136023681A69636A1A70626A7F
:10231000531C6362238D013B2385638D9BB2013B7C
:102320009BB2638523681B695370636A01336362E0
:10233000238D013B2385638D9BB2013B9BB263855B
:10234000238D002B00F08980032B53D8012BB3D0B1
:10235000022BC9D000953346002225492046FFF7BD
:1023600066FC002840F08C802268136823F48063A8
:10237000136023681A69636A1A70636A01336362BF
:10238000238D013B2385638D9BB2013B9BB263850B
:1023900000953346002216492046FFF748FC0028E6
:1023A00070D12268136843F40073136023681A69BC
:1023B000636A1A70626A531C6362238D013B238532
:1023C000638D9BB2013B9BB2638523681B6953708D
:1023D000636A01336362238D013B2385638D9BB266
:1023E000013B9BB26385ABE7020010000000FFFFDA
:1023F000040001002A4631462046FFF7B1FD0028BF
:1024000042D123681A69636A1A70636A013363628E
:10241000228D013A92B22285638D9BB2013B9BB221
:1024200063852368596911F0040F89D0032A0FD0FE
:1024300023681A69636A1A70636A01336362238DC1
:10244000013B2385638D9BB2013B9BB2638577E79C
:102450001A6822F480621A60EAE7202384F83D308B
:10246000002384F83E3084F83C30A4E60227A2E63C
:102470000227A0E601279EE601279CE601279AE6AF
:10248000012798E6012796E6012794E6002800F048
:10249000E08170B582B00446036813F0010F3BD0B1
:1024A0009F4B9B6803F00C03042B2CD09C4B9B6828
:1024B00003F00C03082B21D06368B3F5803F4FD0A5
:1024C000B3F5A02F52D0964B1A6822F480321A60CE
:1024D0001A6822F480221A606368002B50D0FEF73D
:1024E000C1FF05468E4B1B6813F4003F14D1FEF765
:1024F000B9FF401B6428F5D90320B1E1884B5B6824
:1025000013F4800FD8D0864B1B6813F4003F03D020
:102510006368002B00F09F81236813F0020F54D0F2
:102520007F4B9B6813F00C0F3ED07D4B9B6803F0F4
:102530000C03082B33D0E368002B68D0794B0122C1
:102540001A60FEF78FFF0546754B1B6813F0020FEC
:1025500054D1FEF787FF401B0228F5D903207FE105
:102560006F4A136843F480331360B5E76C4B1A6805
:1025700042F480221A601A6842F480321A60ABE793
:10258000FEF770FF0546664B1B6813F4003FC3D08F
:10259000FEF768FF401B6428F5D9032060E1604B1B
:1025A0005B6813F4800FC6D15D4B1B6813F0020FFC
:1025B00003D0E368012B40F05081594A136823F09F
:1025C000F803216943EAC1031360236813F0080F7D
:1025D00042D063696BB3534B0122C3F8802EFEF7E0
:1025E00041FF05464E4B5B6F13F0020F34D1FEF7EF
:1025F00039FF401B0228F5D9032031E1484A13680E
:1026000023F0F803216943EAC1031360DDE7454B7A
:1026100000221A60FEF726FF0546414B1B6813F0A7
:10262000020FD2D0FEF71EFF401B0228F5D903206F
:1026300016E13C4B0022C3F8802EFEF713FF05463F
:10264000374B5B6F13F0020F06D0FEF70BFF401BFA
:102650000228F5D9032003E1236813F0040F77D093
:102660002F4B1B6C13F0805F33D1002301932C4B55
:102670001A6C42F080521A641B6C03F08053019371
:10268000019B0125284B1B6813F4807F23D0A3688E
:10269000012B34D0052B38D0214B1A6F22F00102C8
:1026A0001A671A6F22F004021A67A368002B3DD044
:1026B000FEF7D8FE06461A4B1B6F13F0020F46D1E9
:1026C000FEF7D0FE801B41F288339842F3D90320F5
:1026D000C6E00025D6E7144A136843F480731360FC
:1026E000FEF7C0FE0646104B1B6813F4807FCED168
:1026F000FEF7B8FE801B0228F5D90320B0E0084A97
:10270000136F43F001031367CFE7054B1A6F42F0D5
:1027100004021A671A6F42F001021A67C5E700BF88
:10272000003802400000474200700040FEF79AFE69
:102730000646524B1B6F13F0020F08D0FEF792FEB5
:10274000801B41F288339842F3D9032088E0EDB929
:10275000A369002B00F08380484A926802F00C02C3
:10276000082A51D0022B17D0454B00221A66FEF7DB
:1027700079FE0446414B1B6813F0007F42D0FEF700
:1027800071FE001B0228F5D9032069E03B4A136C57
:1027900023F080531364DBE7394B00221A66FEF7FF
:1027A00061FE0546354B1B6813F0007F06D0FEF72F
:1027B00059FE401B0228F5D9032051E0E369226A43
:1027C0001343626A43EA8213A26A5208013A43EA57
:1027D0000243E26A43EA0263284A5360284B01221B
:1027E0001A66FEF73FFE0446244B1B6813F0007F79
:1027F00006D1FEF737FE001B0228F5D903202FE093
:1028000000202DE000202BE0012B2BD01B4B5B6820
:1028100003F48001E269914226D103F03F02216A6C
:102820008A4223D1616A47F6C0721A40B2EB811F17
:102830001ED103F44031A26A5208013AB1EB024FB3
:1028400018D103F07063E26AB3EB026F14D1002079
:1028500006E001207047012002E0012000E0002096
:1028600002B070BD0120FBE70120F9E70120F7E786
:102870000120F5E70120F3E70120F1E700380240ED
:102880000000474208B5264B9B6803F00C03042B5D
:1028900041D0082B41D1224B5A6802F03F025B68BD
:1028A00013F4800F12D01E4B5968C1F388111D48D4
:1028B0000023A1FB0001FEF789F8194B5B68C3F305
:1028C000014301335B00B0FBF3F008BD144B5868C3
:1028D000C0F388104FEA401CBCEB000C6EEB0E0EF0
:1028E0004FEA8E1343EA9C634FEA8C11B1EB0C0163
:1028F00063EB0E03DB0043EA5173C90011EB000CDC
:1029000043F10003990200234FEA8C2041EA9C51D5
:10291000FEF75CF8D1E70348D7E70348D5E700BFE7
:102920000038024040787D010024F400002800F0C7
:102930009B8070B50D4604464F4B1B6803F00703A0
:102940008B4208D2CBB24C4A1370136803F00703D2
:102950008B4240F08B80236813F0020F17D013F0E6
:10296000040F04D0454A936843F4E053936023680E
:1029700013F0080F04D0414A936843F46043936016
:102980003E4A936823F0F003A1680B4393602368E9
:1029900013F0010F32D06368012B21D09A1E012A57
:1029A00025D9364A126812F0020F61D033498A687D
:1029B00022F0030213438B60FEF754FD06462F4BB3
:1029C0009B6803F00C036268B3EB820F16D0FEF72E
:1029D00049FD801B41F288339842F0D9032042E040
:1029E000264A126812F4003FE0D101203BE0234A5E
:1029F000126812F0007FD9D1012034E01E4B1B6811
:102A000003F00703AB4207D9EAB21B4B1A701B68ED
:102A100003F00703AB422DD1236813F0040F06D057
:102A2000164A936823F4E053E1680B4393602368EC
:102A300013F0080F07D0114A936823F4604321690B
:102A400043EAC1039360FFF71DFF0C4B9B68C3F380
:102A500003130B4AD35CD8400A4B18600A4B186822
:102A6000FEF76CFB002070BD012070470120FAE7E3
:102A70000120F8E70120F6E7003C02400038024060
:102A8000886000080000002008000020014B186842
:102A9000704700BF0000002008B5FFF7F7FF044BA8
:102AA0009B68C3F38223034AD35CD84008BD00BFB0
:102AB000003802408060000808B5FFF7E7FF044BCC
:102AC0009B68C3F34233034AD35CD84008BD00BFC0
:102AD00000380240806000080F2303600B4B9A68A7
:102AE00002F0030242609A6802F0F00282609A6883
:102AF00002F4E052C2609B68DB0803F4E053036118
:102B0000034B1B6803F007030B607047003802405B
:102B1000003C024010B4036A046A24F00104046219
:102B2000846924F0F00C4CEA021223F00A030B43F0
:102B3000826103625DF8044B704710B4036A046A53
:102B400024F010040462846924F4704C4CEA0232CC
:102B500023F0A00343EA0113826103625DF8044B92
:102B60007047836823F070030B4343F007038360CF
:102B70007047000090F83D30DBB2012B32D10223C8
:102B800080F83D300368194A934220D0B3F1804F5A
:102B90001DD0A2F57C42934219D002F58062934287
:102BA00015D002F58062934211D002F5784293422B
:102BB0000DD002F57052934209D0A2F5943293429F
:102BC00005D01A6842F001021A60002070479A6826
:102BD00002F00702062A07D01A6842F001021A60C2
:102BE000002070470120704700207047000001401E
:102BF00090F83D30DBB2012B37D1022380F83D3015
:102C00000268D36843F00103D3600368194A934212
:102C100020D0B3F1804F1DD0A2F57C42934219D051
:102C200002F58062934215D002F58062934211D082
:102C300002F5784293420DD002F57052934209D0CA
:102C4000A2F59432934205D01A6842F001021A604C
:102C5000002070479A6802F00702062A07D01A6817
:102C600042F001021A6000207047012070470020E6
:102C7000704700BF000001407047704770477047C1
:102C800070B504460368DE681D6915F0020F10D0A8
:102C900016F0020F0DD06FF002021A6101230377C4
:102CA00003689B6913F0030F5ED0FFF7E6FF002374
:102CB000237715F0040F12D016F0040F0FD02368FD
:102CC0006FF004021A610223237723689B6913F4CF
:102CD000407F4FD02046FFF7D0FF0023237715F029
:102CE000080F12D016F0080F0FD023686FF00802FB
:102CF0001A61042323772368DB6913F0030F40D0A4
:102D00002046FFF7BAFF0023237715F0100F12D0EB
:102D100016F0100F0FD023686FF010021A6108230D
:102D200023772368DB6913F4407F31D02046FFF717
:102D3000A4FF0023237715F0010F02D016F0010F36
:102D40002DD115F0800F02D016F0800F2FD115F085
:102D5000400F02D016F0400F31D115F0200F02D0F5
:102D600016F0200F33D170BDFFF786FF2046FFF726
:102D700085FF9CE72046FFF77FFF2046FFF77EFF99
:102D8000ABE72046FFF778FF2046FFF777FFBAE76B
:102D90002046FFF771FF2046FFF770FFC9E7236861
:102DA0006FF001021A612046FEF71EF9C9E7236899
:102DB0006FF080021A61204600F07DF9C7E72368B2
:102DC0006FF040021A612046FFF759FFC5E72368FC
:102DD0006FF020021A61204600F06CF9C3E7000092
:102DE0000368344A904212D0B0F1804F0FD0A2F560
:102DF0007C4290420BD002F58062904207D002F5EF
:102E00008062904203D002F57842904203D123F0D1
:102E100070034A681343274A90422AD0B0F1804F8A
:102E200027D0A2F57C42904223D002F580629042E6
:102E30001FD002F5806290421BD002F5784290428A
:102E400017D002F57052904213D002F58062904282
:102E50000FD002F5806290420BD0A2F598329042DA
:102E600007D002F58062904203D002F58062904262
:102E700003D123F44073CA68134323F080034A69E3
:102E8000134303608B68C3620B688362094B9842EB
:102E900003D003F58063984201D10B6903630123DA
:102EA0004361036913F0010F03D0036923F00103A9
:102EB000036170470000014040B310B5044690F82C
:102EC0003D30F3B1022384F83D30214651F8040B24
:102ED000FFF786FF012384F8463084F83E3084F8FB
:102EE0003F3084F8403084F8413084F8423084F830
:102EF000433084F8443084F8453084F83D30002075
:102F000010BD80F83C30FEF7CDF9DBE701207047BB
:102F100010B4846824F47F4C42EA03220A4342EA54
:102F20000C0282605DF8044B704790F83C30012B36
:102F300078D010B50446012380F83C30022380F895
:102F40003D300268936823F47F4323F07703936056
:102F50000B68602B4CD023D8402B54D011D8202B99
:102F600003D00AD80BB1102B05D119462068FFF702
:102F7000F8FD002028E0012026E0302BF5D00120CC
:102F800022E0502B0AD1CA6849680068FFF7C2FDE9
:102F900050212068FFF7E5FD002015E0012013E037
:102FA000B3F5805F3AD0B3F5005F14D0702B37D102
:102FB000CB684A6889680068FFF7AAFF22689368AF
:102FC00043F0770393600020012384F83D30002311
:102FD00084F83C3010BDCB684A6889680068FFF708
:102FE00097FF2268936843F4804393600020EBE7E7
:102FF000CA6849680068FFF7A0FD60212068FFF7F4
:10300000B0FD0020E0E7CA6849680068FFF782FD6C
:1030100040212068FFF7A5FD0020D5E70020D3E779
:103020000120D1E70220704790F83C20012A3DD0D2
:1030300010B40346012280F83C20022280F83D2093
:1030400002685068946820F0700C086840EA0C0030
:1030500050601A68164882421AD0B2F1804F17D0D9
:10306000A0F57C40824213D000F5806082420FD0F0
:1030700000F5806082420BD000F57840824207D094
:1030800000F57050824203D0A0F59430824204D102
:1030900024F08004496821439160012283F83D2097
:1030A000002083F83C005DF8044B70470220704715
:1030B0000000014070477047026802F10C0353E8BA
:1030C000003F23F0C0030C3242E800310029F3D165
:1030D000202380F841307047026802F10C0353E866
:1030E000003F23F490730C3242E800310029F3D101
:1030F000026802F1140353E8003F23F00103143285
:1031000042E800310029F3D1036B012B05D02023C5
:1031100080F84230002303637047026802F10C0319
:1031200053E8003F23F010030C3242E8003100293D
:10313000F3D1ECE790F84130DBB2212B01D0022033
:1031400070478368B3F5805F17D0036A5A1C026228
:103150001A7803685A60C38C9BB2013B9BB2C3844C
:103160004BB90268D36823F08003D3600268D36848
:1031700043F04003D360002070470369002BE4D183
:10318000036A1B880268C3F308035360036A0233AF
:103190000362E0E710B504460268136923F4405364
:1031A000C1680B431361836802691A4343691A4378
:1031B000C3691A430168CB6823F4164323F00C0358
:1031C0001343CB600268536923F4407381690B4356
:1031D00053610368314A934206D002F580629342FC
:1031E00002D0FFF759FC01E0FFF766FCE369B3F595
:1031F000004F29D00021031849411B1841F100015B
:10320000C90041EA5371DB00181863684FEA830272
:103210004FEA937341F10001FDF7D8FB204AA2FB6E
:1032200000314909642303FB11031B013233A2FB64
:1032300003235B0903F0F00202EB011203F00F031A
:10324000216813448B6010BD0023021843EB030177
:10325000121841F10001C90041EA5271D200101860
:1032600041F10001626892185B41FDF7AFFB0C4A27
:10327000A2FB00314909642303FB1103DB00323355
:10328000A2FB03235B095A0002F4F87202EB01125D
:1032900003F00703216813448B60D4E7001001405A
:1032A0001F85EB5160B310B5044690F8413013B35D
:1032B000242384F841302268D36823F40053D36078
:1032C0002046FFF767FF2268136923F490431361D8
:1032D0002268536923F02A0353612268D36843F4B8
:1032E0000053D36000206064202384F8413084F8C8
:1032F0004230606310BD80F84030FEF703F8D7E736
:103300000120704738B5134690F84120D2B2202AE8
:103310002FD1044600292ED00BB9012038BD0162FF
:103320008384C38400224264212084F84100A06B7E
:10333000124DC563A06B124D0564A06B114DC564A1
:10334000A06B026522680432A06BFEF7DBF92368EC
:103350006FF040021A60226802F1140353E8003F44
:1033600043F08003143242E800310029F3D10020F9
:10337000D4E70220D2E70120D0E700BF893300085C
:10338000F1330008FF33000808B50346806B1B6863
:103390001B6813F4807F1AD10023C384026802F1F2
:1033A000140353E8003F23F08003143242E8003155
:1033B0000029F3D1026802F10C0353E8003F43F007
:1033C00040030C3242E800310029F3D108BD01F07E
:1033D00001FFFBE708B50168CA6822F04002CA6035
:1033E000202280F8412001F0F5FE002008BD704742
:1033F00008B5806BFFF7FBFF08BD7047704710B53D
:10340000846B23685A6994F84130DBB2212B10D0C9
:1034100023685A6902F0400294F84230DBB2222B52
:1034200011D0636C43F0100363642046FFF7E6FF9E
:1034300010BD02F08002002AEAD00023E384204677
:10344000FFF73AFEE4E7002AEBD00023E3852046AD
:10345000FFF742FEE5E708B5806B0023C385C38410
:10346000FFF7CCFF08BD704790F84230DBB2222B4B
:1034700069D18368B3F5805F4FD0826AB3F5805F0E
:1034800004D0002B56D10369002B53D103685B682D
:103490001370836A01338362C38D9BB2013B9BB27D
:1034A000C385002B51D100B583B00268D36823F0E7
:1034B0002003D3600268D36823F48073D36002686A
:1034C000536923F001035361202380F84230002325
:1034D0004363036B012B33D100230363026802F1C2
:1034E0000C0353E8003F23F010030C3242E8003194
:1034F0000029F3D103681A6812F0100F06D00022D9
:1035000001921A6801925B680193019B818DFFF71C
:10351000AAFF002003B05DF804FB0269002AACD1C9
:10352000826A03685B68C3F308031380836A02330B
:103530008362B1E703685B6803F07F031370A8E759
:10354000FFF75BFFE5E702207047002070470000AF
:1035500010B582B0044602681368D068516913F050
:103560000F0F09D113F0200F0CD010F0200F09D04D
:103570002046FFF779FF16E011F0010115D110F494
:10358000907F12D1216B012979D013F0800F03D0E5
:1035900010F0800F40F0148113F0400F03D010F0B2
:1035A000400F40F0118102B010BD13F0010F06D0A2
:1035B00010F4807F03D0626C42F00102626413F069
:1035C000040F04D019B1626C42F00202626413F07D
:1035D000020F04D019B1626C42F00402626413F06D
:1035E000080F07D010F0200F00D119B1626C42F023
:1035F00008026264626C002AD5D013F0200F02D05A
:1036000010F0200F29D123685B6903F04003626C3E
:1036100012F0080F00D163B32046FFF75DFD236869
:103620005B6913F0400F20D0226802F1140353E8C5
:10363000003F23F04003143242E800310029F3D167
:10364000E36B73B1624A1A65E06BFEF7DAF80028A3
:10365000A9D0E06B036D9847A5E72046FFF704FF6C
:10366000D1E72046FFF7CAFE9DE72046FFF7C6FEDA
:1036700099E72046FFF7C2FE0023636493E713F047
:10368000100F82D010F0100F3FF47FAF0023019392
:103690001368019353680193019B536913F0400F22
:1036A00052D0E26B13685B689BB2002B3FF47BAF98
:1036B000A18D99427FF677AFE385D369B3F5807F1B
:1036C00037D0226802F10C0353E8003F23F48073E3
:1036D0000C3242E800310029F3D1226802F11403D0
:1036E00053E8003F23F00103143242E8003100297F
:1036F000F3D1226802F1140353E8003F23F04003A2
:10370000143242E800310029F3D1202384F84230FA
:1037100000232363226802F10C0353E8003F23F0E7
:1037200010030C3242E800310029F3D1E06BFEF7C0
:103730001EF802236363A18DE38D9BB2C91A89B27F
:103740002046FFF790FE2EE7A18DE38D9BB2C91AAC
:1037500089B2E38D9BB2002B3FF425AF00293FF4E3
:1037600022AF226802F10C0353E8003F23F4907368
:103770000C3242E800300028F3D1226802F1140331
:1037800053E8003F23F00103143242E800300028E0
:10379000F3D1202384F8423000232363226802F10E
:1037A0000C0353E8003F23F010030C3242E80030D2
:1037B0000028F3D1022363632046FFF754FEF2E6AC
:1037C0002046FFF7B7FCEEE62046FFF703FEEAE6E9
:1037D0005734000800B587B00023ADF81430322309
:1037E00002930223019305AB009301230C226C2169
:1037F0000648FEF7CFFC9DF814309DF8150040EA0E
:10380000032000B207B05DF804FB00BF3C030020BA
:1038100000B587B00023ADF81430322302930223A1
:10382000019305AB009301230C226C210648FEF79F
:10383000B1FC9DF814309DF8150040EA032000B259
:1038400007B05DF804FB00BFE802002000B587B0B8
:103850000023ADF81430322302930223019305AB09
:10386000009301230C226C210648FEF793FC9DF87F
:1038700014309DF8150040EA032000B207B05DF84F
:1038800004FB00BF94020020842801D0033070475D
:103890000020704708B500F0BDFF002008BD2DE9ED
:1038A000F04387B00E464469C4B18569B5B1476835
:1038B000D0F80080D0F81090B0F90800FFF7E4FFCE
:1038C00002950194009033464A464146384600F03E
:1038D00033FF0590059807B0BDE8F083446805689C
:1038E0000769B0F90800FFF7CFFF05AB019300901F
:1038F0003346BAB22946204600F059FF0128E9D0E4
:103900000020E8E708B500B9012001F0CDF800205B
:1039100008BD00F1080343604FF0FF328260C360CE
:10392000036100230360704700230361704743680D
:103930004B609A688A60516099600861036801333E
:103940000360704730B40D68B5F1FF3F11D000F14E
:1039500008031C465B681A68AA42FAD963684B6080
:1039600099608C606160086103680133036030BC5A
:1039700070470469F2E70369416882688A604168B8
:1039800051605A68824206D0002202611A68013AE8
:103990001A601868704782685A60F5E782B00023A1
:1039A00001930D4B1B68B3F1FF3F08D04FF050035C
:1039B00083F31188BFF36F8FBFF34F8FFEE74FF094
:1039C000500383F31188BFF36F8FBFF34F8F019BB9
:1039D000002BFCD002B070470C00002008480068A3
:1039E000006880F308884FF0000080F3148862B606
:1039F00061B6BFF34F8FBFF36F8F00DF00BF0000D2
:103A000008ED00E0DFF80C00016841F4700101608E
:103A10007047000088ED00E04FF0807340F8043CF0
:103A200021F0010140F8081C054B40F80C3C40F81F
:103A3000202C6FF0020340F8243C4438704700BF4C
:103A40009D39000800000000000000000000000098
:103A5000074B19680868B0E8F04F80F30988BFF396
:103A60006F8F4FF0000080F311887047AFF3008034
:103A7000200601204FF0500383F31188BFF36F8FAE
:103A8000BFF34F8F0B4A136801331360012B00D033
:103A900070474FF0E023D3F8043D13F0FF0FF7D049
:103AA0004FF0500383F31188BFF36F8FBFF34F8F35
:103AB000FEE700BF0C000020094B1B6843B94FF024
:103AC000500383F31188BFF36F8FBFF34F8FFEE76F
:103AD000013B034A13600BB983F31188704700BFA1
:103AE0000C000020000000000000000000000000AA
:103AF000EFF30980BFF36F8F154B1A681EF0100F9C
:103B000008BF20ED108A20E9F04F10602DE9090070
:103B10004FF0500080F31188BFF34F8FBFF36F8FCA
:103B200000F0E8FF4FF0000080F3118809BC19682D
:103B30000868B0E8F04F1EF0100F08BFB0EC108A14
:103B400080F30988BFF36F8F704700BFAFF3008029
:103B50002006012008B54FF0500383F31188BFF30E
:103B60006F8FBFF34F8F00F097FE28B14FF0E02327
:103B70004FF08052C3F8042D002383F3118808BD51
:103B80004FF0E022002313619361054B1B68054948
:103B9000A1FB03139B09013B53610723136170478A
:103BA00000000020D34D62104FF0E023D3F8002D29
:103BB0003D4B9A421CD04FF0E023D3F8002D3B4BF5
:103BC0009A421ED030B583B0394B1A78D2B20192E6
:103BD000FF221A701B78DBB28DF803309DF803309A
:103BE00003F05003334A1370334B07221A601BE073
:103BF0004FF0500383F31188BFF36F8FBFF34F8FE4
:103C0000FEE74FF0500383F31188BFF36F8FBFF3CC
:103C10004F8FFEE7284A1368013B13609DF803307D
:103C20005B00DBB28DF803309DF8033013F0800F9A
:103C3000F0D1214B1B68032B08D04FF0500383F3C6
:103C40001188BFF36F8FBFF34F8FFEE71B021A4A35
:103C5000136003F4E0631360019BDBB2144A13703A
:103C60004FF0E024D4F8203D43F47003C4F8203D25
:103C7000D4F8203D43F07043C4F8203DFFF780FFA7
:103C800000250E4B1D60FFF7BDFED4F8343F43F016
:103C90004043C4F8343FFFF7A1FE00F02BFFFFF7CD
:103CA0007DFE284603B030BD71C20F4170C20F4186
:103CB00000E400E0D4040020D00400200C00002028
:103CC000134A12F0070F1FD0D11D21F00701C1F5D3
:103CD0007F43FF3313440A460E48026000214160CF
:103CE0001344083B23F007030B4803605960196035
:103CF000991A51601360094B1960094B1960094BFF
:103D00004FF000421A6070474FF6FF73E4E700BFC0
:103D1000F8040020F0040020EC040020E40400205B
:103D2000E8040020D8040020164B1A461B68834282
:103D3000FBD3516802EB010C844509D0416800EBCC
:103D4000010C634509D00360904219D010607047A0
:103D50004068014451601046F0E710B40A4C2468F2
:103D6000A3420BD05B681944416013681B68036071
:103D7000904200D010605DF8044B70470460F7E794
:103D8000704700BFF0040020EC04002038B5044662
:103D900000F07AFD384B1B68B3B1384B1B681C42EE
:103DA00050D1002C50D004F1080214F0070F02D0BB
:103DB00022F007020832002A55D0314B1B6893428B
:103DC00053D330490C6804E0FFF77AFFE5E721465A
:103DD0001C466368934202D22368002BF7D1264B1E
:103DE0001B68A34243D00D68083523680B606368E5
:103DF0009B1A102B10D9A01810F0070F08D04FF005
:103E0000500383F31188BFF36F8FBFF34F8FFEE72B
:103E100043606260FFF788FF626819490B689B1A6C
:103E20000B60194909688B4201D217490B60134B8B
:103E30001B681343636000232360144A1368013333
:103E4000136002E0002500E0002500F0B1FD15F050
:103E5000070F0ED04FF0500383F31188BFF36F8F1D
:103E6000BFF34F8FFEE70025EFE70025EDE70025C4
:103E7000EBE7284638BD00BFEC040020D804002042
:103E8000E8040020F0040020E4040020E004002006
:103E9000002834D038B50446A0F1080550F8043C99
:103EA000174A1268134208D14FF0500383F3118868
:103EB000BFF36F8FBFF34F8FFEE750F8081C41B17F
:103EC0004FF0500383F31188BFF36F8FBFF34F8F11
:103ED000FEE723EA020340F8043C00F0D5FC54F866
:103EE000041C084A13680B4413602846FFF71CFFA4
:103EF000054A13680133136000F05AFD38BD70475E
:103F0000D8040020E8040020DC04002010B504469A
:103F1000FFF7B0FDA26BE36B9A4204D00024FFF7D9
:103F2000CBFD204610BD0124F9E710B50446FFF78C
:103F3000A1FDA36B23B90124FFF7BEFD204610BDF0
:103F40000024F9E770B504461546866B026C5AB931
:103F500003681BB100200136A66370BD806800F0C5
:103F6000D7FE0023A360F6E76DB94068FCF748FD73
:103F70006368226C13446360A268934219D3236878
:103F800063602846E7E7C068FCF73AFDE368226C07
:103F900051429B1AE3602268934202D2A3680B4409
:103FA000E360022D01D00020D5E726B1013E0020BC
:103FB000D1E72846CFE70020CDE70346026C6AB17F
:103FC00010B50846D9681144D9609C68A14201D354
:103FD0001968D960D968FCF713FD10BD704738B572
:103FE0000546FFF747FD95F8454064B201E0013C06
:103FF00064B2002C0ADD6B6A43B105F1240000F0C5
:10400000DDFD0028F3D000F06DFEF0E7FF2385F81A
:104010004530FFF751FDFFF72DFD95F8444064B2A0
:1040200001E0013C64B2002C0ADD2B6943B105F1CB
:10403000100000F0C3FD0028F3D000F053FEF0E7BD
:10404000FF2385F84430FFF737FD38BD38B5E0B1C0
:104050000D460446FFF70EFD2368E26B216C01FB61
:104060000230A0600020A0636360013A02FB0133CC
:10407000E360FF2384F8443084F84530FDB92369B8
:1040800063B9FFF719FD012038BD4FF0500383F3EA
:104090001188BFF36F8FBFF34F8FFEE704F110005D
:1040A00000F08CFD0028ECD04FF0E0234FF0805260
:1040B000C3F8042DBFF34F8FBFF36F8FE1E704F117
:1040C0001000FFF726FC04F12400FFF722FCD8E7DC
:1040D00010B5034602980C4631B90060C36304640E
:1040E0000121FFF7B3FF10BD0260F7E740B94FF0C1
:1040F000500383F31188BFF36F8FBFF34F8FFEE739
:10410000F0B583B00D461446064601FB00F048307A
:10411000FFF73CFE074650B1002380F84630009080
:10412000234600F1480229463046FFF7D1FF3846C2
:1041300003B0F0BDF0B585B0019288B10F461D46C1
:104140000446B1B1022D20D1E36B012B1DD04FF0FD
:10415000500383F31188BFF36F8FBFF34F8FFEE7D8
:104160004FF0500383F31188BFF36F8FBFF34F8F6E
:10417000FEE7036C002BE5D04FF0500383F311886A
:10418000BFF36F8FBFF34F8FFEE700F0B1FD064620
:1041900058B9019B002B48D04FF0500383F311888E
:1041A000BFF36F8FBFF34F8FFEE700263DE02A4637
:1041B00039462046FFF7C6FE636A7BB948B14FF027
:1041C000E0234FF08052C3F8042DBFF34F8FBFF3AD
:1041D0006F8FFFF771FC012005B0F0BD04F12400E2
:1041E00000F0ECFC0028F4D04FF0E0234FF08052B8
:1041F000C3F8042DBFF34F8FBFF36F8FE9E7FFF7CD
:104200005BFC0020E8E702A800F01EFD012619E093
:10421000002384F8443021E0002384F8453023E073
:104220002046FFF7DCFE00F0C3FBFFF723FCA26B88
:10423000E36B9A42BBD3022DB9D0019B002BDED099
:10424000002EE0D0FFF738FC00F01EFBFFF712FC59
:1042500094F8442052B2B2F1FF3FD9D094F84520EF
:1042600052B2B2F1FF3FD7D0FFF726FC01A902A856
:1042700000F0F6FCD8B92046FFF748FE0028CFD062
:10428000019904F1100000F081FC2046FFF7A7FE21
:1042900000F08EFB0028C8D14FF0E0234FF0805291
:1042A000C3F8042DBFF34F8FBFF36F8FBDE72046D8
:1042B000FFF795FE00F07CFB00208DE7F0B585B0A0
:1042C000019290B10F460446C1B100F011FD0646BF
:1042D00000BB019B002B5ED04FF0500383F311888D
:1042E000BFF36F8FBFF34F8FFEE74FF0500383F3A1
:1042F0001188BFF36F8FBFF34F8FFEE7036C002B66
:10430000E3D04FF0500383F31188BFF36F8FBFF3F7
:104310004F8FFEE700263EE039462046FFF74DFE70
:10432000013DA563236923B9FFF7C6FB012005B052
:10433000F0BD04F1100000F041FC0028F4D04FF073
:10434000E0234FF08052C3F8042DBFF34F8FBFF32B
:104350006F8FE9E7FFF7B0FB0020E8E702A800F065
:1043600073FC012621E0002384F8443029E0002377
:1043700084F845302BE02046FFF731FE00F018FBB3
:1043800009E02046FFF72BFE00F012FB2046FFF766
:10439000CCFD00283FD1FFF76DFBA56B002DBBD1F5
:1043A000019B002BD6D0002ED8D0FFF785FB00F064
:1043B0006BFAFFF75FFB94F844305BB2B3F1FF3F59
:1043C000D1D094F845305BB2B3F1FF3FCFD0FFF7C7
:1043D00073FB01A902A800F043FC0028D1D12046BC
:1043E000FFF7A3FD0028C6D0019904F1240000F0D6
:1043F000CDFB2046FFF7F3FD00F0DAFA0028CAD122
:104400004FF0E0234FF08052C3F8042DBFF34F8FDD
:10441000BFF36F8FBFE7002089E70000084B1B68E0
:104420001B6823B9074B4FF0FF321A607047044BEB
:104430001B68DB68DB685A68024B1A60704700BF74
:1044400068050120000501202DE9F0470746984640
:10445000089DDDF824900A9C266B02F18042013A07
:1044600006EB820626F00706C1B308464FF0000CA3
:10447000BCF10F0F09D810F80C2004EB0C0383F8E3
:10448000342012B10CF1010CF2E7002384F8433020
:10449000062D00D90625E56265644FF0000AC4F8D0
:1044A00048A0201DFFF740FA04F11800FFF73CFA7E
:1044B0002461C5F10705A5616462C4F84CA084F8C5
:1044C00050A0424639463046FFF7A6FA2060B9F1BF
:1044D000000F01D0C9F80040BDE8F087002384F840
:1044E0003430D5E738B5002407E004EB84029300AC
:1044F0000E481844FFF70DFA0134062CF5D90C4D7F
:104500002846FFF706FA0B4C2046FFF702FA0A4846
:10451000FFF7FFF90948FFF7FCF90948FFF7F9F938
:10452000084B1D60084B1C6038BD00BF940501207E
:10453000800501206C050120500501203C0501206B
:1045400024050120680501206405012010B50446FA
:10455000FFF790FA214A136801331360204B1B6860
:104560005BB1204B1B686BB91D4B1B68DA6AE36AB1
:104570009A4207D81A4B1C6004E0194B1C60136860
:10458000012B28D0184A136801331360E06A012315
:104590008340164A11680B43136000EB8000211D15
:1045A000134B03EB8000FFF7C2F9FFF785FA0D4BC1
:1045B0001B687BB10A4B1B68DA6AE36A9A4209D22C
:1045C0004FF0E0234FF08052C3F8042DBFF34F8F1C
:1045D000BFF36F8F10BDFFF785FFD3E720050120E4
:1045E00020060120140501200405012018050120E2
:1045F0009405012010B5044690F8513063B1012BA9
:1046000011D0022B0ED04FF0500383F31188BFF36B
:104610006F8FBFF34F8FFEE7006BFFF739FC20462B
:10462000FFF736FC10BDFFF733FCFBE70F4B1B68B1
:10463000D3B110B5FFF71EFA0D4BDB68DC68201D07
:10464000FFF799F90B4A1368013B1360074A136897
:10465000013B1360FFF730FA2046FFF7CBFF034B17
:104660001B68002BE6D110BD704700BF3805012044
:104670003C0501202005012008B5FFF7D7FF074BB7
:104680001B68012BF9D94FF0E0234FF08052C3F89B
:10469000042DBFF34F8FBFF36F8FEEE7940501201A
:1046A00070B504460D461D4B1E681D4B186804303E
:1046B000FFF761F948B91A4B1B68DB6A01229A407F
:1046C00018490B6823EA02030B60B4F1FF3F0DD0D9
:1046D0003444134B1B685C60A64210D9124B186817
:1046E0000F4B19680431FFF72DF970BD002DEFD085
:1046F0000B4B196804310D48FFF719F9F5E70C4B1E
:104700001868074B19680431FFF71CF9094B1B683F
:10471000A342EAD9074B1C60E7E700BF1C05012054
:104720002006012018050120640501202405012030
:10473000680501200005012030B587B00B9C7CB1D5
:104740000C9DB5B154250495049D542D1AD04FF0FD
:10475000500383F31188BFF36F8FBFF34F8FFEE7D2
:104760004FF0500383F31188BFF36F8FBFF34F8F68
:10477000FEE74FF0500383F31188BFF36F8FBFF351
:104780004F8FFEE7049D0C9D2C63022485F8514059
:1047900000240394029505AC01940A9C0094FFF751
:1047A00053FE0C98FFF7D2FE059807B030BD2DE9F7
:1047B000F04385B00746884614461E469000FFF732
:1047C000E5FA08B381465420FFF7E0FA0546A8B1A0
:1047D000C0F83090002380F85130039302900D9B75
:1047E00001930C9B00933346224641463846FFF71F
:1047F0002BFE2846FFF7AAFE012007E04846FFF7F8
:1048000047FB4FF0FF3001E04FF0FF3005B0BDE84F
:10481000F083000010B588B000240594069407AA20
:1048200006A905A8FCF7ECF9059B0293069B0193EA
:1048300000942346079A0E490E48FFF77DFF0E4B62
:10484000186090B14FF0500383F31188BFF36F8F5E
:10485000BFF34F8F094B4FF0FF321A60084B012214
:104860001A60084B1C60FFF79FF908B010BD00BF2D
:104870007860000879460008FC040120000501204A
:10488000140501201C050120024A1368013313603E
:10489000704700BFF8040120F8B53A4B1B68002BA5
:1048A00069D1394B1D6801351D60C5B9374B1B688F
:1048B0001B6843B14FF0500383F31188BFF36F8F30
:1048C000BFF34F8FFEE7314A1168314B1868106013
:1048D0001960304A136801331360FFF79FFD2E4BB8
:1048E0001B68AB423DD900272C4B1B68DB6A03EBEE
:1048F00083039A002A4B9B58012B00D90127294B8F
:104900001B68002B3CD001273AE001271F4B1B6896
:104910001B6843B31D4B1B68DB68DC6863689D4202
:1049200026D3261D3046FFF726F8A36A1BB104F1F3
:104930001800FFF720F8E36A01229A401A49086834
:1049400002430A6003EB83039A0031461448104483
:10495000FEF7EDFFE26A114B1B68DB6A9A42D4D284
:10496000D4E70027D2E70C4B4FF0FF321A60BBE7C9
:10497000094A1360B8E70D4A136801331360002732
:104980003846F8BDF80401201C0501206805012007
:1049900064050120080501200005012020060120F2
:1049A000940501200C0501201805012010050120A7
:1049B00038B5354B1B6843B94FF0500383F311886A
:1049C000BFF36F8FBFF34F8FFEE7FFF753F82E4B08
:1049D0001A68013A1A601B68002B4FD12B4B1B68D9
:1049E0000BB900244BE00024294B1B681BB3284B58
:1049F000DB68DC6804F11800FEF7BDFF251D2846C2
:104A0000FEF7B9FFE06A01238340224A11680B4395
:104A1000136000EB800029461F4B03EB8000FEF77C
:104A200086FFE26A1D4B1B68DB6A9A42DCD31C4B93
:104A300001221A60D8E70CB1FFF7F0FC194B1C6893
:104A400084B9174B1C68D4B14FF0E0234FF080526B
:104A5000C3F8042DBFF34F8FBFF36F8F01240EE017
:104A6000013C07D0FFF718FF0028F9D00C4B0122BA
:104A70001A60F5E70B4B00221A60E2E70024FFF70B
:104A80001BF8204638BD00BFF80401202005012096
:104A90005005012018050120940501202006012061
:104AA0000C0501201005012010B5A8B10446104BDB
:104AB0001B6843B14FF0500383F31188BFF36F8F2E
:104AC000BFF34F8FFEE7FFF7DFFE00212046FFF721
:104AD000E7FDFFF76DFF48B94FF0E0234FF080523C
:104AE000C3F8042DBFF34F8FBFF36F8F10BD00BF0E
:104AF000F8040120204B1B681BB1204B01221A60D7
:104B000070471E4B00221A601D4B1B68B3FA83F3DB
:104B1000DBB2C3F11F0303EB83018A0019498A58F2
:104B200042B94FF0500383F31188BFF36F8FBFF387
:104B30004F8FFEE7134803EB83018A00024451685C
:104B40004968516003EB830C4FEA8C02083202443F
:104B5000914209D003EB83039A000A4B13445B682C
:104B6000DA68094B1A607047486862469100054A46
:104B70000A445060EEE700BFF80401200C05012054
:104B800018050120940501202006012058B110B518
:104B90000C46094A11681831FEF7D4FE012120465F
:104BA000FFF77EFD10BD4FF0500383F31188BFF374
:104BB0006F8FBFF34F8FFEE72006012038B5C36823
:104BC000DC6824B304F118052846FEF7D4FE184B20
:104BD0001B682BBB251D2846FEF7CDFEE06A01238E
:104BE0008340144A11680B43136000EB8000294690
:104BF000114B03EB8000FEF79AFEE26A0F4B1B6835
:104C0000DB6A9A4211D901200D4B186038BD4FF074
:104C1000500383F31188BFF36F8FBFF34F8FFEE70D
:104C200029460848FEF783FEE7E70020EEE700BFCD
:104C3000F804012018050120940501202006012018
:104C40000C05012050050120034B1B680360034B3A
:104C50001B684360704700BF080501201C05012048
:104C6000F8B5C8B10C460546F9B1FEF703FF1B4B7A
:104C700019686B68C81A2268B2F1FF3F26D0184E37
:104C800036682F68B74201D08B4224D9824215D8AA
:104C90000023236001241AE04FF0500383F31188AE
:104CA000BFF36F8FBFF34F8FFEE74FF0500383F3D7
:104CB0001188BFF36F8FBFF34F8FFEE75B1A13446A
:104CC00023602846FFF7C0FF002400E00024FEF721
:104CD000F3FE2046F8BD0124F9E700BF1C050120C2
:104CE00008050120014B01221A6070470C050120C4
:104CF000054B1B6833B1054B1B680BB10020704797
:104D0000022070470120704714050120F80401209B
:104D100000284BD038B50446264B1B68834208D088
:104D20004FF0500383F31188BFF36F8FBFF34F8FA2
:104D3000FEE7836C43B94FF0500383F31188BFF350
:104D40006F8FBFF34F8FFEE7013B8364C16A426CF4
:104D500091422DD00BB1002038BD051D2846FEF72D
:104D60000AFE68B9E36A03EB8302920012498A588B
:104D700032B901229A4011490B6823EA02030B6001
:104D8000606CE062C0F10703A361012404FA00F340
:104D90000A4A11680B43136000EB80002946064B5A
:104DA00003EB8000FEF7C3FD2046D5E700207047E7
:104DB0000020D1E7200601209405012018050120DC
:104DC0000346104605E013F8011B41400348405CD0
:104DD00011464A1E0029F6D1704700BFA0620008A4
:104DE00050B138B50546022905D94C1EFF2221468F
:104DF000FFF7E6FF285538BD70470000034698B11D
:104E0000481E99B110B413F8011B5140C9B2084CA7
:104E100034F8111081EA1222014601380029F2D13A
:104E200010465DF8044B70474FF6FF72104670470E
:104E3000A060000880B170B50C46054602290AD969
:104E40008E1E064B1A883146FFF7D8FFA855013C45
:104E5000C0F30720285570BD704700BF1000002028
:104E600070B5002407E0C4EBC4002D4B03EB8000B9
:104E700000F05EF80134052CF5DD09E00223002284
:104E8000214628480068FFF755F90120FFF70CFE7E
:104E9000FEF7A0FC0146244E3080214D284600F04C
:104EA00023F9224C84ED000A00F05FFB014670807C
:104EB00005F11C0000F018F984ED010A00F0C1FCB6
:104EC0000146B08005F1380000F00EF984ED020AC9
:104ED00000F033FE0146F08005F1540000F004F9C3
:104EE00084ED030AFEF794FC0146308105F1700061
:104EF00000F0FAF884ED040AFEF7A8FC0146708180
:104F000005F18C0000F0F0F884ED050A00231A4644
:104F1000214604480068FFF70DF90128AED1B4E737
:104F20002406012090030020CC060120D806012091
:104F3000002304E000EB8302002111600133042B05
:104F4000F8DD00230375002383617047027D00EBC9
:104F5000820383ED000A0132044B83FB02135B10D2
:104F600003EB8303D31A0375704700BF6766666659
:104F700086B0002308E000EB8302116806AA02EB6A
:104F8000830242F8141C0133042BF4DD00211FE0DE
:104F90001346C1F104029A4219DD06AA02EB83020C
:104FA00052ED057A5A1C06A800EB820010ED057A36
:104FB000F4EEC77AF1EE10FAEADD06A800EB8303FF
:104FC00003ED057A00EB820343ED057AE0E701315A
:104FD000032901DC0023DCE70123DFED097A07E088
:104FE00006AA02EB830212ED057A77EE877A013387
:104FF000032BF5DDB0EE080A87EE800A06B0704795
:1050000000000000DFED0A7AB4EEE70AF1EE10FAD4
:1050100001DDB0EE670A9FED067AC0EE077A9FEDDC
:10502000057A67EE877A9FED040A37EE800A7047AB
:1050300000002F43CCCCCC3E9A99993E10B52DED73
:10504000028B0446B0EE408AD0ED068A30EE687AD4
:10505000DFED237AB4EEE77AF1EE10FA26DDDFED2C
:10506000217A30EE678A38EE680AB0EEC00AFFF7A0
:10507000C9FF28EE008AF7EE007A77EEC07A68EE74
:10508000A78A38EE288A84ED068AB5EEC08AF1EE4A
:1050900010FA19D4DFED137AB4EEE78AF1EE10FAC4
:1050A00018DB38EE678A84ED068A13E078EEC07A62
:1050B0009FED0B7AF4EEC77AF1EE10FAD3DDDFED57
:1050C000097A30EE278ACEE7DFED067A38EE278AB6
:1050D00084ED068A94ED060ABDEC028B10BD00BF7C
:1050E000000034430000B44310B50446084600F005
:1050F000D7F82046FFF72AFF2046FFF739FF204662
:10510000FFF79CFF10BD000070B505461446A523AF
:105110001370A2F801101D490A78531CDBB20B7002
:10512000E2700BB901220A70002626710521204683
:10513000FFF756FE022363710323A371314619E082
:105140008B0005EB810215F821C004EB810080F88B
:1051500007C0581C92F801C0204480F807C003F132
:10516000020C9078A4448CF807000333D2782344CF
:10517000DA7101310529E3DD002384F8253084F854
:10518000263027212046FFF755FE70BDF00601208E
:105190000C4B1B7803B1704710B50A4B01221A70F3
:1051A000094C217801EB8103C1EBC3012722074B96
:1051B00019440748FEF7A6F82378B3FA83F35B098E
:1051C000237010BD24070120250701202807012096
:1051D000840400200268044B9A4200D07047034BBD
:1051E00000221A70FAE700BF0044004024070120A3
:1051F00030B58BB040E0254A02EB83021168244AA7
:1052000002EB830211600133052BF4DD272200211C
:10521000684600F005FE6A461E211D48FFF774FF30
:105220001C4B1B7803EB8302C3EBC2026C461A4B88
:1052300003EB020C08ADA646BEE80F00CCF8000058
:10524000CCF80410CCF80820CCF80C3074460CF1E3
:10525000100CAE45EFD1DEF80000CCF80000BEF82F
:1052600004209EF80630ACF804208CF80630FFF7D6
:105270008FFF0120FFF718FC05220449074B18682F
:10528000FFF71CF80128F4D10023BDE70C0701202B
:10529000F4060120250701202807012090030020A3
:1052A00008B5FBF7C7F80022034BFBF72DF9FBF716
:1052B0003DFB00EE100A08BD0080B63F38B54FF444
:1052C000FA740A4B1B6913F0200F0ED1013C0CD06D
:1052D000064D4FF48013AB610120FBF76FFE1023E6
:1052E000AB610120FBF76AFEEBE738BD000002402E
:1052F00038B5FFF7E3FF0E4C4FF48015A561012090
:10530000FBF75CFE2023A3610120FBF757FE10236F
:10531000A3610120FBF752FE4FF40013A3610120AB
:10532000FBF74CFEA5610120FBF748FE38BD00BF2E
:105330000000024038B50446002510E0164B4FF43B
:1053400000129A616400E4B20120FBF737FE124BB1
:1053500010229A610120FBF731FE0135EDB2072DD5
:105360000DD80D4B4FF480129A610120FBF726FEF9
:1053700014F0800FE2D0084B20229A61E2E7064C3D
:105380004FF48013A3610120FBF718FE2023A361D3
:105390000120FBF713FE38BD00000240F8B5104CA9
:1053A0004FF48017A7610120FBF708FE2026A661B5
:1053B0000120FBF703FE1023A3610A20FBF7FEFD8B
:1053C00025693540A7610120FBF7F8FDA6610120A2
:1053D000FBF7F4FD0DB10120F8BD0020FCE700BF94
:1053E0000000024070B50D4C4FF48016A6610120FC
:1053F000FBF7E4FD2025A5610120FBF7DFFD10236D
:10540000A3610A20FBF7DAFDA6610120FBF7D6FDB8
:10541000A5610120FBF7D2FD70BD00BF0000024076
:1054200038B50E4C4FF48015A5610120FBF7C6FD81
:105430004FF40013A3610120FBF7C0FD1023A3610B
:105440000A20FBF7BBFDA5610120FBF7B7FD202378
:10545000A3610120FBF7B2FD38BD00BF0000024090
:10546000F8B507460024254608E0114B4FF480129A
:105470009A610120FBF7A2FD0134E4B2072C0ED89B
:105480000B4E1023B3610120FBF798FD6D00EDB2C8
:10549000336913F0200FE8D045F00105E5E71FB1AF
:1054A000FFF7A0FF2846F8BDFFF7BAFFFAE700BFF5
:1054B0000000024010B50C4C4FF48013A361012092
:1054C000FBF77CFD4FF40013A3610120FBF776FD91
:1054D0001023A3610120FBF771FD2023A3610120AC
:1054E000FBF76CFD10BD00BF00000240F8B505469B
:1054F0000F4616461C46FFF7FBFE680000F0FE0054
:10550000FFF718FFFFF74AFFA0B93846FFF712FF71
:10551000FFF744FF90B9FFF7EBFE680040F0010091
:10552000C0B2FFF707FFFFF739FF90B1FFF7C2FFE7
:10553000012019E0FFF7BEFF012015E0FFF7BAFFD9
:10554000012011E00120FFF78BFF3070013CE4B235
:10555000013634B1012CF5D00020FFF781FF307007
:10556000F4E7FFF7A7FF2046F8BD00B583B000239E
:10557000ADF80430022301AA0C213620FFF7B6FF54
:105580009DF804309DF8050040EA032000B203B006
:105590005DF804FB38B54FF4FA740A4B1B6913F03D
:1055A000200F0ED1013C0CD0064D4FF48013AB619F
:1055B0000120FBF703FD1023AB610120FBF7FEFC8C
:1055C000EBE738BD0008024038B5FFF7E3FF0E4CAB
:1055D0004FF48015A5610120FBF7F0FC2023A361A7
:1055E0000120FBF7EBFC1023A3610120FBF7E6FC95
:1055F0004FF40013A3610120FBF7E0FCA56101203B
:10560000FBF7DCFC38BD00BF0008024038B504469B
:10561000002510E0164B4FF400129A616400E4B2CA
:105620000120FBF7CBFC124B10229A610120FBF703
:10563000C5FC0135EDB2072D0DD80D4B4FF480128E
:105640009A610120FBF7BAFC14F0800FE2D0084BFE
:1056500020229A61E2E7064C4FF48013A3610120F7
:10566000FBF7ACFC2023A3610120FBF7A7FC38BDAE
:1056700000080240F8B5104C4FF48017A7610120D4
:10568000FBF79CFC2026A6610120FBF797FC10236A
:10569000A3610A20FBF792FC25693540A761012030
:1056A000FBF78CFCA6610120FBF788FC0DB1012003
:1056B000F8BD0020FCE700BF0008024070B50D4CAB
:1056C0004FF48016A6610120FBF778FC2025A56128
:1056D0000120FBF773FC1023A3610A20FBF76EFC8B
:1056E000A6610120FBF76AFCA5610120FBF766FCBF
:1056F00070BD00BF0008024038B50E4C4FF4801555
:10570000A5610120FBF75AFC4FF40013A3610120AF
:10571000FBF754FC1023A3610A20FBF74FFCA561A3
:105720000120FBF74BFC2023A3610120FBF746FC83
:1057300038BD00BF00080240F8B5074600242546E2
:1057400008E0114B4FF480129A610120FBF736FC00
:105750000134E4B2072C0ED80B4E1023B3610120A4
:10576000FBF72CFC6D00EDB2336913F0200FE8D08D
:1057700045F00105E5E71FB1FFF7A0FF2846F8BD9A
:10578000FFF7BAFFFAE700BF0008024010B50C4C63
:105790004FF48013A3610120FBF710FC4FF40013BA
:1057A000A3610120FBF70AFC1023A3610120FBF792
:1057B00005FC2023A3610120FBF700FC10BD00BF06
:1057C00000080240F8B505460F4616461C46FFF78E
:1057D000FBFE680000F0FE00FFF718FFFFF74AFF2E
:1057E000A0B93846FFF712FFFFF744FF90B9FFF763
:1057F000EBFE680040F00100C0B2FFF707FFFFF7C3
:1058000039FF90B1FFF7C2FF012019E0FFF7BEFF9B
:10581000012015E0FFF7BAFF012011E00120FFF79A
:105820008BFF3070013CE4B2013634B1012CF5D06D
:105830000020FFF781FF3070F4E7FFF7A7FF204655
:10584000F8BD00B583B00023ADF80430022301AAEF
:105850000C213620FFF7B6FF9DF804309DF80500B7
:1058600040EA032000B203B05DF804FB38B54FF402
:10587000FA740B4B1B6913F4005F0FD1013C0DD080
:10588000074D4FF08053AB610120FBF797FB4FF4BE
:105890008053AB610120FBF791FBEAE738BD00BF05
:1058A0000010024038B5FFF7E1FF0F4C4FF0805574
:1058B000A5610120FBF782FB4FF40053A361012097
:1058C000FBF77CFB4FF48053A3610120FBF776FBD1
:1058D0004FF00053A3610120FBF770FBA56101208D
:1058E000FBF76CFB38BD00BF0010024038B5044622
:1058F000002511E0184B4FF000529A616400E4B2A9
:105900000120FBF75BFB144B4FF480529A6101209E
:10591000FBF754FB0135EDB2072D0ED80E4B4FF0BF
:1059200080529A610120FBF749FB14F0800FE1D00F
:10593000094B4FF400529A61E0E7074C4FF0805357
:10594000A3610120FBF73AFB4FF40053A361012050
:10595000FBF734FB38BD00BF00100240F8B5114C16
:105960004FF08057A7610120FBF728FB4FF400564A
:10597000A6610120FBF722FB4FF48053A3610A20AC
:10598000FBF71CFB25693540A7610120FBF716FBDF
:10599000A6610120FBF712FB0DB10120F8BD00202C
:1059A000FCE700BF0010024070B50E4C4FF080566F
:1059B000A6610120FBF702FB4FF40055A561012011
:1059C000FBF7FCFA4FF48053A3610A20FBF7F6FAC9
:1059D000A6610120FBF7F2FAA5610120FBF7EEFAC0
:1059E00070BD00BF0010024038B50F4C4FF080551D
:1059F000A5610120FBF7E2FA4FF00053A3610120FB
:105A0000FBF7DCFA4FF48053A3610A20FBF7D6FAC8
:105A1000A5610120FBF7D2FA4FF40053A3610120E6
:105A2000FBF7CCFA38BD00BF00100240F8B50746BE
:105A30000024254608E0114B4FF080529A61012066
:105A4000FBF7BCFA0134E4B2072C0FD80B4E4FF42D
:105A50008053B3610120FBF7B1FA6D00EDB23369F9
:105A600013F4005FE7D045F00105E4E71FB1FFF74D
:105A70009BFF2846F8BDFFF7B7FFFAE7001002408A
:105A800010B50D4C4FF08053A3610120FBF796FA3F
:105A90004FF00053A3610120FBF790FA4FF48053BD
:105AA000A3610120FBF78AFA4FF40053A3610120A0
:105AB000FBF784FA10BD00BF00100240F8B50546A0
:105AC0000F4616461C46FFF7EDFE680000F0FE008C
:105AD000FFF70CFFFFF742FFA0B93846FFF706FFBC
