:020000040800F2
:100000000000022001100008BD0E0008BF0E00080D
:10001000C10E0008C30E0008C50E00080000000055
:10002000000000000000000000000000412B00085C
:10003000C70E000800000000E12B0008452C000856
:10004000511000085110000851100008511000080C
:1000500051100008511000085110000851100008FC
:1000600051100008511000085110000851100008EC
:1000700051100008511000085110000851100008DC
:1000800051100008C90E0008511000085110000856
:1000900051100008511000085110000851100008BC
:1000A00051100008511000085110000851100008AC
:1000B0005110000851100008D90E00085110000816
:1000C000511000085110000851100008511000088C
:1000D0005110000851100008E90E000851100008E6
:1000E000511000085110000851100008511000086C
:1000F000511000085110000851100008511000085C
:10010000511000085110000851100008511000084B
:10011000511000085110000851100008511000083B
:10012000511000085110000851100008511000082B
:10013000511000085110000851100008511000081B
:10014000511000085110000851100008511000080B
:1001500051100008511000085110000851100008FB
:1001600051100008511000085110000851100008EB
:100170005110000851100008511000080000000044
:080180005110000851100008A5
:1001900070B54FF0FF0C4CF4E06C1CEA11541DBF1D
:1001A0001CEA135594EA0C0F95EA0C0F00F0DEF8E8
:1001B0002C4481EA030621EA4C5123EA4C5350EACD
:1001C000013518BF52EA033541F4801143F480131E
:1001D00038D0A0FB02CE4FF00005E1FB02E506F0AF
:1001E0000042E0FB03E54FF00006E1FB03569CF004
:1001F000000F18BF4EF0010EA4F1FF04B6F5007F0A
:1002000064F5407404D25FEA4E0E6D4146EB06067B
:1002100042EAC62141EA55514FEAC52040EA5E5004
:100220004FEACE2EB4F1FD0C88BFBCF5E06F1ED8AE
:10023000BEF1004F08BF5FEA500E50F1000041EBE5
:10024000045170BD06F0004646EA010140EA020092
:1002500081EA0301B4EB5C04C2BFD4EB0C0541EAB4
:10026000045170BD41F480114FF0000E013C00F3C9
:10027000AB8014F1360FDEBF002001F0004170BDED
:10028000C4F10004203C35DA0C341BDC04F1140406
:10029000C4F1200500FA05F320FA04F001FA05F292
:1002A00040EA020001F0004221F0004110EBD3705F
:1002B00021FA04F642EB06015EEA430E08BF20EA8B
:1002C000D37070BDC4F10C04C4F1200500FA04F32E
:1002D00020FA05F001FA04F240EA020001F00041C0
:1002E00010EBD37041F100015EEA430E08BF20EA33
:1002F000D37070BDC4F1200500FA05F24EEA020E7B
:1003000020FA04F301FA05F243EA020321FA04F0A9
:1003100001F0004121FA04F220EA020000EBD37060
:100320005EEA430E08BF20EAD37070BD94F0000F60
:100330000FD101F00046400041EB010111F4801F94
:1003400008BF013CF7D041EA060195F0000F18BF45
:10035000704703F00046520043EB030313F4801F81
:1003600008BF013DF7D043EA0603704794EA0C0F3B
:100370000CEA135518BF95EA0C0F0CD050EA410651
:1003800018BF52EA4306D1D181EA030101F00041CE
:100390004FF0000070BD50EA410606BF10461946F6
:1003A00052EA430619D094EA0C0F02D150EA013602
:1003B00013D195EA0C0F05D152EA03361CBF104643
:1003C00019460AD181EA030101F0004141F0FE41E2
:1003D00041F470014FF0000070BD41F0FE4141F466
:1003E000780170BD81F0004102E000BF83F000435E
:1003F00030B54FEA41044FEA430594EA050F08BFC0
:1004000090EA020F1FBF54EA000C55EA020C7FEA83
:10041000645C7FEA655C00F0E2804FEA5454D4EB00
:100420005555B8BF6D420CDD2C4480EA020281EACA
:10043000030382EA000083EA010180EA020281EA02
:100440000303362D88BF30BD11F0004F4FEA013154
:100450004FF4801C4CEA113102D0404261EB410163
:1004600013F0004F4FEA03334CEA133302D05242E9
:1004700063EB430394EA050F00F0A780A4F10104A5
:10048000D5F1200E0DDB02FA0EFC22FA05F28018DF
:1004900041F1000103FA0EF2801843FA05F35941C5
:1004A0000EE0A5F120050EF1200E012A03FA0EFC44
:1004B00028BF4CF0020C43FA05F3C01851EBE3716E
:1004C00001F0004507D54FF0000EDCF1000C7EEB8B
:1004D00000006EEB0101B1F5801F1BD3B1F5001FC9
:1004E0000CD349085FEA30004FEA3C0C04F10104E8
:1004F0004FEA445212F5800F80F09A80BCF1004F11
:1005000008BF5FEA500C50F1000041EB045141EA92
:10051000050130BD5FEA4C0C404141EB0101013C5B
:1005200028BFB1F5801FE9D291F0000F04BF01464A
:100530000020B1FA81F308BF2033A3F10B03B3F11C
:1005400020020CDA0C3208DD02F1140CC2F10C02AC
:1005500001FA0CF021FA02F10CE002F11402D8BF0A
:10056000C2F1200C01FA02F120FA0CFCDCBF41EAD6
:100570000C019040E41AA2BF01EB0451294330BDA5
:100580006FEA04041F3C1CDA0C340EDC04F1140482
:10059000C4F1200220FA04F001FA02F340EA030059
:1005A00021FA04F345EA030130BDC4F10C04C4F19F
:1005B000200220FA02F001FA04F340EA030029467F
:1005C00030BD21FA04F0294630BD94F0000F83F4C9
:1005D000801306BF81F480110134013D4EE77FEAAC
:1005E000645C18BF7FEA655C29D094EA050F08BFF8
:1005F00090EA020F05D054EA000C04BF19461046D9
:1006000030BD91EA030F1EBF0021002030BD5FEA1C
:10061000545C05D14000494128BF41F0004130BD44
:1006200014F580043CBF01F5801130BD01F0004598
:1006300045F0FE4141F470014FF0000030BD7FEA0B
:10064000645C1ABF194610467FEA655C1CBF0B4606
:10065000024650EA013406BF52EA033591EA030F1D
:1006600041F4002130BD00BF90F0000F04BF002115
:10067000704730B54FF4806404F132044FF0000548
:100680004FF0000150E700BF90F0000F04BF0021C1
:10069000704730B54FF4806404F1320410F0004527
:1006A00048BF40424FF000013EE700BF42004FEA22
:1006B000E2014FEA31014FEA02701FBF12F07F439F
:1006C00093F07F4F81F06051704732F07F4208BF56
:1006D000704793F07F4F04BF41F40021704730B55D
:1006E0004FF4607401F0004521F000411CE700BFA9
:1006F00050EA010208BF704730B54FF000050AE02C
:1007000050EA010208BF704730B511F0004502D52C
:10071000404261EB41014FF4806404F132045FEA2E
:10072000915C3FF4D8AE4FF003025FEADC0C18BFD7
:1007300003325FEADC0C18BF033202EBDC02C2F1C9
:10074000200300FA03FC20FA02F001FA03FE40EA5B
:100750000E0021FA02F11444BDE600BF4FEA410247
:10076000B2F1E04324BFB3F5001CDCF1FE5C0DD90F
:1007700001F0004C4FEAC0024CEA5070B2F1004F59
:1007800040EB830008BF20F00100704711F0804F5C
:1007900021D113F13872BCBF01F00040704741F421
:1007A00080114FEA5252C2F11802C2F1200C10FA25
:1007B0000CF320FA02F018BF40F001004FEAC12309
:1007C0004FEAD32303FA0CFC40EA0C0023FA02F3AD
:1007D0004FEA4303CCE77FEA625307D150EA013383
:1007E0001EBF4FF0FE4040F44000704701F0004053
:1007F00040F0FE4040F40000704700BF53B94AB9D2
:10080000002908BF00281CBF4FF0FF314FF0FF3018
:1008100000F00CB8ADF1080C6DE904CE04F0A6FEB2
:10082000DDF804E0DDE9022304B07047704700BF43
:10083000844641EA000313F003036DD1403A41D3EB
:1008400051F8043B40F8043B51F8043B40F8043BAA
:1008500051F8043B40F8043B51F8043B40F8043B9A
:1008600051F8043B40F8043B51F8043B40F8043B8A
:1008700051F8043B40F8043B51F8043B40F8043B7A
:1008800051F8043B40F8043B51F8043B40F8043B6A
:1008900051F8043B40F8043B51F8043B40F8043B5A
:1008A00051F8043B40F8043B51F8043B40F8043B4A
:1008B00051F8043B40F8043B51F8043B40F8043B3A
:1008C000403ABDD2303211D351F8043B40F8043BDA
:1008D00051F8043B40F8043B51F8043B40F8043B1A
:1008E00051F8043B40F8043B103AEDD20C3205D3EA
:1008F00051F8043B40F8043B043AF9D2043208D0E2
:10090000D2071CBF11F8013B00F8013B01D30B8853
:1009100003806046704700BF082A13D38B078DD031
:1009200010F003038AD0C3F10403D21ADB071CBF03
:1009300011F8013B00F8013B80D331F8023B20F86D
:10094000023B7BE7043AD9D3013A11F8013B00F8A6
:10095000013BF9D20B7803704B7843708B7883702E
:10096000604670470348044B834202D0034B03B1F7
:1009700018477047180000201800002000000000F1
:100980000548064B1B1AD90F01EBA301491002D0F1
:10099000034B03B1184770471800002018000020CF
:1009A0000000000010B5064C237843B9FFF7DAFFCA
:1009B000044B13B10448AFF300800123237010BD32
:1009C0001800002000000000EC59000808B5054B95
:1009D0001BB105490548AFF30080BDE80840FFF7AB
:1009E000CFBF00BF000000001C000020EC59000831
:1009F00000B583B000220192094B196B41F400113C
:100A000019631B6B03F400130193019B0521112053
:100A100000F0A0FB112000F0ADFB03B05DF804FB7B
:100A20000038024008B5012001F0E8FFFBE70000B4
:100A3000034B0360034B0B6080231360704700BFC0
:100A4000340200203400002010B596B01B4C0DF18C
:100A50003C0CA646BEE80F00ACE80F009EE807007D
:100A60008CE8070000210FA801F095FF144B1860D7
:100A70000DF1200C04F11C0EBEE80F00ACE80F00D5
:100A80009EE807008CE80700002108A801F083FF1A
:100A90000C4B18600DF1040E04F1380CBCE80F008B
:100AA000AEE80F009CE807008EE80700002101A8CF
:100AB00001F071FF044B186016B010BD045A000815
:100AC000900200208C020020880200202DE9F043D3
:100AD0008DB000240794089409940A940B9401940F
:100AE0005E4B1A6B42F010021A631A6B02F010028E
:100AF0000192019A02941A6B42F080021A631A6BF7
:100B000002F080020292029A03941A6B42F00402ED
:100B10001A631A6B02F004020392039A04941A6B8C
:100B200042F001021A631A6B02F001020492049A65
:100B300005941A6B42F002021A631A6B02F0020269
:100B40000592059A06941A6B42F008021A631B6B11
:100B500003F008030693069BDFF80C91012243F291
:100B60000601484600F062FE224648F20801484667
:100B700000F05CFEDFF8F48001223321404600F0F3
:100B800055FE22460821404600F050FE344F012217
:100B90000C21384600F04AFE22462021384600F05B
:100BA00045FE304E224648F20201304600F03EFE3D
:100BB00001224FF44051304600F038FE43F2060364
:100BC00007930125089509950A9507A9484600F05D
:100BD00037FD48F208030793089509940A9407A97A
:100BE000484600F02DFD33230793089509950A9593
:100BF00007A9404600F024FD0823079308950994AF
:100C00000A9407A9404600F01BFD0C2307930895A2
:100C100009950A9507A9384600F012FD202307938D
:100C2000089509940A9407A9384600F009FD48F28E
:100C300002030793089509940A9407A9304600F027
:100C4000FFFC4FF440530793089509950A9507A9AF
:100C5000304600F0F5FC0DB0BDE8F08300380240EE
:100C60000000024000040240001002400008024060
:100C700010B582B0002301930E4A116C41F00101BE
:100C80001164126C02F001020192019A0A4C4FF0B9
:100C90008042226053226260A3604FF0FF32E26024
:100CA0002361204601F0B0FA204601F00BF902B0B2
:100CB00010BD00BF003802409402002010B5044669
:100CC00001F050FF4FF080435A6A02E09B1AA342A2
:100CD00007D24FF080435B6A9A42F7D99B1A013BD7
:100CE000F5E701F061FF10BD08B50268034B9A42B9
:100CF00000D008BD00F0C8F9FBE700BF00080040C5
:100D000072B6FEE700B595B03022002108A804F0C5
:100D10008BFD00230393049305930693079301939C
:100D2000214A116C41F080511164126C02F0805222
:100D30000192019A02931D4B1A6842F480421A6094
:100D40001B6803F480430293029B012308934FF432
:100D50008033099302230E934FF480020F921922DD
:100D600010924FF4A872119212930423139308A8BF
:100D700000F062FD98B90F2303930223049300232C
:100D800005934FF4A05306934FF480530793052126
:100D900003A800F0A1FF20B915B05DF804FBFFF730
:100DA000AFFFFFF7ADFF00BF00380240007000400A
:100DB00008B500F04FF9FFF7A5FFFFF787FEFFF733
:100DC00017FE00F0A3F8FFF753FFFFF73DFE01F019
:100DD000DDFDFEE700B583B0002200920D4B596C9B
:100DE00041F480415964596C01F4804100910099AB
:100DF0000192196C41F0805119641B6C03F080530F
:100E00000193019B0F216FF0010000F0A3F903B0E3
:100E10005DF804FB0038024030B589B00446002379
:100E20000193214B1A6C42F004021A641B6C03F00C
:100E300004030193019B02A903A801F023F8069B78
:100E4000CBB900F0FFFF0346184AA2FB03239B0C1B
:100E5000013B1748174A026040F2E732C260436024
:100E6000002303618360836101F0CEF9054630B150
:100E7000284609B030BD00F0E5FF4300E4E70C4828
:100E800001F05EF805460028F2D11E2000F072F94C
:100E90000F2C01D90125EBE7002221461E2000F08E
:100EA00059F9054B1C60E3E70038024083DE1B4321
:100EB000DC0200200008004008000020FEE7FEE7FA
:100EC000FEE7FEE7FEE7704708B5024800F0CAFA01
:100ED00008BD00BF2403002008B5024801F078F8DF
:100EE00008BD00BFDC02002008B5024801F006FC86
:100EF00008BD00BF84030020034AD2F8883043F4C1
:100F00007003C2F88830704700ED00E008B50A4869
:100F10000A4B03604FF4E133436000238360C360F6
:100F200003610C2242618361C36101F091FA00B94F
:100F300008BDFFF7E5FEFBE7840300200044004006
:100F400030B589B000230393049305930693079368
:100F50000268274B9A4201D009B030BD04460025F3
:100F6000019503F5FA331A6C42F400321A641A6CD4
:100F700002F400320192019A02951A6B42F00802C3
:100F80001A631B6B03F008030293029B6023039315
:100F900002230493032306930723079303A9154809
:100FA00000F04EFB1448154B03604FF000634360A4
:100FB00040238360C5604FF48063036145618561B0
:100FC000C5614FF440330362456200F053F958B9EC
:100FD000094BA3639C6300220521262000F0BAF888
:100FE000262000F0C7F8B7E7FFF78AFEF0E700BF5A
:100FF00000440040000C024024030020A060024096
:10100000DFF834D0FFF778FF0C480D490D4A002374
:1010100002E0D458C4500433C4188C42F9D30A4AAD
:101020000A4C002301E013600432A242FBD304F017
:101030004DFCFFF7BDFE70470000022000000020BD
:1010400018000020C0650008180000207C45002022
:10105000FEE7000008B50B4B1A6842F400721A60F4
:101060001A6842F480621A601A6842F480721A6048
:10107000032000F05DF80F20FFF7CEFEFFF7AAFE79
:10108000002008BD003C0240034A1168034B1B7856
:101090000B441360704700BFCC0300200400002005
:1010A000014B1868704700BFCC030020002807DB05
:1010B00000F01F02400901239340024A42F8203009
:1010C000704700BF00E100E0002808DB0901C9B259
:1010D00000F1604000F5614080F80013704700F0B7
:1010E0000F000901C9B2014B1954704714ED00E01B
:1010F00000B500F00700C0F1070CBCF1040F28BFD9
:101100004FF0040C031D062B0FD9C31E4FF0FF3EFA
:101110000EFA0CF021EA000199400EFA03FE22EAD1
:101120000E0241EA02005DF804FB0023EEE7000036
:10113000074AD36823F4E0631B041B0C000200F48D
:10114000E060034343F0BF6343F40033D360704770
:1011500000ED00E010B50446054BD868C0F302204E
:10116000FFF7C6FF01462046FFF7AEFF10BD00BFE8
:1011700000ED00E008B5FFF799FF08BD30B4056841
:101180002C6824F480242C60046863608368402BFE
:1011900005D0036899600368DA6030BC7047036863
:1011A0009A600368D960F8E710B40368D9B21039BF
:1011B0000A4AA2FB01421209094CA25CC2655F29DE
:1011C00007D96FF3090304338365806D5DF8044B21
:1011D00070476FF309038365F7E700BFABAAAAAABC
:1011E000A05A0008836A826992B9012B0AD0022BA7
:1011F00002D00BB100207047C36A13F0807F28D162
:1012000000207047C36AB3F1C07F24D0002070472C
:10121000B2F5005F09D0022B25D9032B25D1C36A73
:1012200013F0807F23D100207047032B03D8DFE821
:1012300003F01404140A00207047C36A13F0807F7F
:101240000DD100207047C36AB3F1C07F09D00020E0
:10125000704701207047012070470120704701202E
:10126000704701207047012070470020704701201F
:101270007047000070B50446FFF712FF002C5BD0EA
:101280000546022384F83530002384F83430226880
:10129000136823F00103136023681A6812F0010F2A
:1012A0000AD0FFF7FDFE431B052BF5D9202363650C
:1012B000032084F8350070BD1A6820491140626827
:1012C000A0680243E0680243206902436069024368
:1012D000A0690243E0690243206A02430A43616A4B
:1012E00004291ED01A602668756925F00705636A0F
:1012F0001D43042B07D1A36A1D43E36A1BB120469B
:10130000FFF770FF90B975612046FFF74DFFE26D62
:101310003F239340836000206065012384F83530CB
:10132000C9E7E16A206B01430A43DBE740236365B9
:10133000012084F83500BEE70120BCE73F8010F0B3
:1013400038B50446856D90F8340001282BD0012073
:1013500084F8340094F83500C0B2012804D000238A
:1013600084F83430022038BD022084F83500002093
:1013700060652046FFF702FFE26D3F239340AB60BC
:101380002268136843F016031360236C23B12268AC
:10139000136843F0080313602268136843F00103E5
:1013A00013600020DFE70220DDE770B50446866D9C
:1013B000FFF776FE94F83530DBB2022B06D080239F
:1013C0006365002384F83430012070BD054622682F
:1013D000136823F0160313602268536923F0800317
:1013E0005361236CE3B12268136823F00803136090
:1013F0002268136823F00103136023681B6813F04D
:10140000010F11D0FFF74CFE431B052BF5D920230C
:101410006365032084F83500002384F83430D4E772
:10142000A36C002BDFD1E3E7E26D3F239340B36071
:10143000012384F83530002084F83400C5E790F8A3
:101440003530DBB2022B03D0802343650120704787
:10145000052380F835300268136823F00103136018
:1014600000207047F0B583B0044600230193724B0F
:101470001D68724BA3FB0535AD0A876D3E68C26DD2
:1014800008239340334210D003681A6812F0040F07
:101490000BD01A6822F004021A60C26D0823934030
:1014A000BB60436D43F001034365E26D012393404C
:1014B000334209D02268526912F0800F04D0BB6019
:1014C000636D43F002036365E26D0423934033428E
:1014D00009D02268126812F0020F04D0BB60636D5D
:1014E00043F004036365E26D10239340334224D03C
:1014F0002268126812F0080F1FD0BB6023681A68B8
:1015000012F4802F0DD01B6813F4002F04D1236C2C
:101510009BB12046984710E0A36C73B120469847D2
:101520000BE01A6812F4807F03D11A6822F00802D7
:101530001A60236C0BB120469847E26D202393403C
:10154000334255D02268126812F0100F50D0BB60A1
:1015500094F83530DBB2052B0ED023681A6812F4EC
:10156000802F33D01B6813F4002F2AD1636C002B1B
:101570003ED0204698473BE02268136823F01603CC
:1015800013602268536923F080035361236CA3B175
:101590002268136823F008031360E26D3F23934031
:1015A000BB60012384F83530002384F83430236D88
:1015B000002B3FD0204698473CE0A36C002BE7D19E
:1015C000EBE7E36BA3B12046984711E01A6812F4E9
:1015D000807F09D11A6822F010021A60012384F872
:1015E0003530002384F83430E36B0BB12046984744
:1015F000636DFBB1636D13F0010F17D0052384F801
:1016000035302268136823F001031360019B013316
:101610000193AB4204D823681B6813F0010FF5D186
:10162000012384F83530002384F83430E36C0BB1A7
:101630002046984703B0F0BD00000020B5814E1B46
:1016400000230F2B00F2E98070B582B065E0856859
:101650004FEA430E032404FA0EF425EA0405CC688D
:1016600004FA0EF42C438460446824EA02044A68B5
:10167000C2F300129A40224342605CE0DC08083466
:1016800050F8242003F00705AD004FF00F0E0EFABE
:1016900005FE22EA0E0E0A69AA4042EA0E0240F84E
:1016A00024205CE0072200E0002202FA0EF22A4326
:1016B00002345A4D45F82420594A94686FEA0C02C6
:1016C00024EA0C054E6816F4801F01D04CEA04058C
:1016D000534CA560E46802EA04054E6816F4001F46
:1016E00001D04CEA04054E4CE560646802EA04054A
:1016F0004E6816F4003F01D04CEA0405484C656082
:10170000246822404D6815F4803F01D04CEA040261
:10171000434C226001330F2B7DD801229A400C6884
:1017200004EA020C32EA0404F4D14C6804F0030425
:10173000013C012C8BD94A6802F00302032A09D02C
:10174000C4685D000322AA4024EA02048A68AA4011
:101750002243C2604A6802F00302022A8ED0046863
:101760004FEA430E032202FA0EF224EA02044A6808
:1017700002F0030202FA0EF2224302604A6812F4F7
:10178000403FC7D000220192264A546C44F4804462
:101790005464526C02F480420192019A9C08A51C88
:1017A0001E4A52F8255003F0030E4FEA8E0E0F2208
:1017B00002FA0EF225EA02051B4A90423FF474AF8A
:1017C00002F5806290421AD002F58062904218D0F1
:1017D00002F58062904216D002F58062904214D0E9
:1017E00002F58062904212D002F58062904210D0E1
:1017F00002F5806290423FF455AF082255E701227E
:1018000053E7022251E703224FE704224DE7052266
:101810004BE7062249E702B070BD7047003801402F
:10182000003C014000380240000002400AB18161E2
:101830007047090481617047002800F0E08170B5AD
:1018400082B00446036813F0010F3BD09F4B9B68A6
:1018500003F00C03042B2CD09C4B9B6803F00C036F
:10186000082B21D06368B3F5803F4FD0B3F5A02F8C
:1018700052D0964B1A6822F480321A601A6822F409
:1018800080221A606368002B50D0FFF709FC0546E0
:101890008E4B1B6813F4003F14D1FFF701FC401B73
:1018A0006428F5D90320B1E1884B5B6813F4800FFD
:1018B000D8D0864B1B6813F4003F03D06368002B1D
:1018C00000F09F81236813F0020F54D07F4B9B6878
:1018D00013F00C0F3ED07D4B9B6803F00C03082BDC
:1018E00033D0E368002B68D0794B01221A60FFF7F0
:1018F000D7FB0546754B1B6813F0020F54D1FFF759
:10190000CFFB401B0228F5D903207FE16F4A136803
:1019100043F480331360B5E76C4B1A6842F48022BD
:101920001A601A6842F480321A60ABE7FFF7B8FB1E
:101930000546664B1B6813F4003FC3D0FFF7B0FBAE
:10194000401B6428F5D9032060E1604B5B6813F409
:10195000800FC6D15D4B1B6813F0020F03D0E36804
:10196000012B40F05081594A136823F0F803216994
:1019700043EAC1031360236813F0080F42D0636980
:101980006BB3534B0122C3F8802EFFF789FB05464A
:101990004E4B5B6F13F0020F34D1FFF781FB401BFE
:1019A0000228F5D9032031E1484A136823F0F803EF
:1019B000216943EAC1031360DDE7454B00221A6049
:1019C000FFF76EFB0546414B1B6813F0020FD2D0A8
:1019D000FFF766FB401B0228F5D9032016E13C4BBC
:1019E0000022C3F8802EFFF75BFB0546374B5B6F89
:1019F00013F0020F06D0FFF753FB401B0228F5D966
:101A0000032003E1236813F0040F77D02F4B1B6CE6
:101A100013F0805F33D1002301932C4B1A6C42F0FA
:101A200080521A641B6C03F080530193019B0125C3
:101A3000284B1B6813F4807F23D0A368012B34D07C
:101A4000052B38D0214B1A6F22F001021A671A6F4A
:101A500022F004021A67A368002B3DD0FFF720FB99
:101A600006461A4B1B6F13F0020F46D1FFF718FB07
:101A7000801B41F288339842F3D90320C6E0002549
:101A8000D6E7144A136843F480731360FFF708FB2A
:101A90000646104B1B6813F4807FCED1FFF700FB86
:101AA000801B0228F5D90320B0E0084A136F43F0E9
:101AB00001031367CFE7054B1A6F42F004021A6760
:101AC0001A6F42F001021A67C5E700BF00380240F2
:101AD0000000474200700040FFF7E2FA0646524B12
:101AE0001B6F13F0020F08D0FFF7DAFA801B41F2E8
:101AF00088339842F3D9032088E0EDB9A369002B1D
:101B000000F08380484A926802F00C02082A51D003
:101B1000022B17D0454B00221A66FFF7C1FA044684
:101B2000414B1B6813F0007F42D0FFF7B9FA001B4E
:101B30000228F5D9032069E03B4A136C23F0805357
:101B40001364DBE7394B00221A66FFF7A9FA054652
:101B5000354B1B6813F0007F06D0FFF7A1FA401B3E
:101B60000228F5D9032051E0E369226A1343626A2F
:101B700043EA8213A26A5208013A43EA0243E26A44
:101B800043EA0263284A5360284B01221A66FFF792
:101B900087FA0446244B1B6813F0007F06D1FFF739
:101BA0007FFA001B0228F5D903202FE000202DE04A
:101BB00000202BE0012B2BD01B4B5B6803F4800132
:101BC000E269914226D103F03F02216A8A4223D181
:101BD000616A47F6C0721A40B2EB811F1ED103F44E
:101BE0004031A26A5208013AB1EB024F18D103F01A
:101BF0007063E26AB3EB026F14D1002006E00120AB
:101C00007047012002E0012000E0002002B070BD1A
:101C10000120FBE70120F9E70120F7E70120F5E7C4
:101C20000120F3E70120F1E70038024000004742BD
:101C300008B5264B9B6803F00C03042B41D0082BFE
:101C400041D1224B5A6802F03F025B6813F4800FC7
:101C500012D01E4B5968C1F388111D480023A1FB07
:101C60000001FEF7CBFD194B5B68C3F30143013361
:101C70005B00B0FBF3F008BD144B5868C0F388104C
:101C80004FEA401CBCEB000C6EEB0E0E4FEA8E13BD
:101C900043EA9C634FEA8C11B1EB0C0163EB0E033A
:101CA000DB0043EA5173C90011EB000C43F1000360
:101CB000990200234FEA8C2041EA9C51FEF79EFDD9
:101CC000D1E70348D7E70348D5E700BF0038024013
:101CD00040787D010024F400002800F09B8070B55E
:101CE0000D4604464F4B1B6803F007038B4208D296
:101CF000CBB24C4A1370136803F007038B4240F0D9
:101D00008B80236813F0020F17D013F0040F04D058
:101D1000454A936843F4E0539360236813F0080F37
:101D200004D0414A936843F4604393603E4A936809
:101D300023F0F003A1680B439360236813F0010FB5
:101D400032D06368012B21D09A1E012A25D9364A48
:101D5000126812F0020F61D033498A6822F0030240
:101D600013438B60FFF79CF906462F4B9B6803F0EB
:101D70000C036268B3EB820F16D0FFF791F9801B5A
:101D800041F288339842F0D9032042E0264A126893
:101D900012F4003FE0D101203BE0234A126812F028
:101DA000007FD9D1012034E01E4B1B6803F00703EC
:101DB000AB4207D9EAB21B4B1A701B6803F007034A
:101DC000AB422DD1236813F0040F06D0164A936856
:101DD00023F4E053E1680B439360236813F0080F8A
:101DE00007D0114A936823F46043216943EAC10391
:101DF0009360FFF71DFF0C4B9B68C3F303130B4A63
:101E0000D35CD8400A4B18600A4B1868FFF704F8F7
:101E1000002070BD012070470120FAE70120F8E79B
:101E20000120F6E7003C024000380240905A0008CA
:101E30000000002008000020014B1868704700BF18
:101E40000000002008B5FFF7F7FF044B9B68C3F3C1
:101E50008223034AD35CD84008BD00BF003802404B
:101E6000885A000808B5FFF7E7FF044B9B68C3F3E7
:101E70004233034AD35CD84008BD00BF003802405B
:101E8000885A00080F2303600B4B9A6802F0030284
:101E900042609A6802F0F00282609A6802F4E052AE
:101EA000C2609B68DB0803F4E0530361034B1B68CB
:101EB00003F007030B60704700380240003C02400B
:101EC0007047000090F83D30DBB2012B32D1022385
:101ED00080F83D300368194A934220D0B3F1804F17
:101EE0001DD0A2F57C42934219D002F58062934244
:101EF00015D002F58062934211D002F578429342E8
:101F00000DD002F57052934209D0A2F5943293425B
:101F100005D01A6842F001021A60002070479A68E2
:101F200002F00702062A07D01A6842F001021A607E
:101F300000207047012070470020704700000140DA
:101F400090F83D30DBB2012B37D1022380F83D30D1
:101F50000268D36843F00103D3600368194A9342CF
:101F600020D0B3F1804F1DD0A2F57C42934219D00E
:101F700002F58062934215D002F58062934211D03F
:101F800002F5784293420DD002F57052934209D087
:101F9000A2F59432934205D01A6842F001021A6009
:101FA000002070479A6802F00702062A07D01A68D4
:101FB00042F001021A6000207047012070470020A3
:101FC000704700BF0000014070477047704770477E
:101FD00070B504460368DE681D6915F0020F10D065
:101FE00016F0020F0DD06FF002021A610123037781
:101FF00003689B6913F0030F5ED0FFF7E6FF002331
:10200000237715F0040F12D016F0040F0FD02368B9
:102010006FF004021A610223237723689B6913F48B
:10202000407F4FD02046FFF7D0FF0023237715F0E5
:10203000080F12D016F0080F0FD023686FF00802B7
:102040001A61042323772368DB6913F0030F40D060
:102050002046FFF7BAFF0023237715F0100F12D0A8
:1020600016F0100F0FD023686FF010021A610823CA
:1020700023772368DB6913F4407F31D02046FFF7D4
:10208000A4FF0023237715F0010F02D016F0010FF3
:102090002DD115F0800F02D016F0800F2FD115F042
:1020A000400F02D016F0400F31D115F0200F02D0B2
:1020B00016F0200F33D170BDFFF786FF2046FFF7E3
:1020C00085FF9CE72046FFF77FFF2046FFF77EFF56
:1020D000ABE72046FFF778FF2046FFF777FFBAE728
:1020E0002046FFF771FF2046FFF770FFC9E723681E
:1020F0006FF001021A612046FEF7F6FDC9E723687A
:102100006FF080021A61204600F0ABF8C7E7236841
:102110006FF040021A612046FFF759FFC5E72368B8
:102120006FF020021A61204600F09AF8C3E7000021
:102130000368344A904212D0B0F1804F0FD0A2F51C
:102140007C4290420BD002F58062904207D002F5AB
:102150008062904203D002F57842904203D123F08E
:1021600070034A681343274A90422AD0B0F1804F47
:1021700027D0A2F57C42904223D002F580629042A3
:102180001FD002F5806290421BD002F57842904247
:1021900017D002F57052904213D002F5806290423F
:1021A0000FD002F5806290420BD0A2F59832904297
:1021B00007D002F58062904203D002F5806290421F
:1021C00003D123F44073CA68134323F080034A69A0
:1021D000134303608B68C3620B688362094B9842A8
:1021E00003D003F58063984201D10B690363012397
:1021F0004361036913F0010F03D0036923F0010366
:10220000036170470000014040B310B5044690F8E8
:102210003D30F3B1022384F83D30214651F8040BE0
:10222000FFF786FF012384F8463084F83E3084F8B7
:102230003F3084F8403084F8413084F8423084F8EC
:10224000433084F8443084F8453084F83D30002031
:1022500010BD80F83C30FFF733FEDBE7012070470C
:1022600070477047026802F10C0353E8003F23F007
:10227000C0030C3242E800310029F3D1202380F85A
:1022800041307047026802F10C0353E8003F23F429
:1022900090730C3242E800310029F3D1026802F158
:1022A000140353E8003F23F00103143242E80031E5
:1022B0000029F3D1036B012B05D0202380F8423095
:1022C000002303637047026802F10C0353E8003FE8
:1022D00023F010030C3242E800310029F3D1ECE77F
:1022E00090F84130DBB2212B01D002207047836887
:1022F000B3F5805F17D0036A5A1C02621A7803682C
:102300005A60C38C9BB2013B9BB2C3844BB9026839
:10231000D36823F08003D3600268D36843F040039E
:10232000D360002070470369002BE4D1036A1B8847
:102330000268C3F308035360036A02330362E0E7F1
:1023400010B504460268136923F44053C1680B4377
:102350001361836802691A4343691A43C3691A43C4
:102360000168CB6823F4164323F00C031343CB60BE
:102370000268536923F4407381690B435361036816
:10238000314A934206D002F58062934202D0FFF7B1
:1023900059FD01E0FFF766FDE369B3F5004F29D071
:1023A0000021031849411B1841F10001C90041EA0D
:1023B0005371DB00181863684FEA83024FEA937386
:1023C00041F10001FEF71AFA204AA2FB0031490947
:1023D000642303FB11031B013233A2FB03235B09BC
:1023E00003F0F00202EB011203F00F032168134423
:1023F0008B6010BD0023021843EB0301121841F15A
:102400000001C90041EA5271D200101841F10001E7
:10241000626892185B41FEF7F1F90C4AA2FB0031A9
:102420004909642303FB1103DB003233A2FB0323BE
:102430005B095A0002F4F87202EB011203F0070381
:10244000216813448B60D4E7001001401F85EB51D5
:1024500060B310B5044690F8413013B3242384F8D8
:1024600041302268D36823F40053D3602046FFF73D
:1024700067FF2268136923F490431361226853694C
:1024800023F02A0353612268D36843F40053D360D6
:1024900000206064202384F8413084F84230606377
:1024A00010BD80F84030FEF74BFDD7E701207047A4
:1024B00038B5134690F84120D2B2202A2FD10446D5
:1024C00000292ED00BB9012038BD01628384C3845A
:1024D00000224264212084F84100A06B124DC563A4
:1024E000A06B124D0564A06B114DC564A06B026515
:1024F00022680432A06BFEF723FF23686FF04002CE
:102500001A60226802F1140353E8003F43F080038D
:10251000143242E800310029F3D10020D4E7022030
:10252000D2E70120D0E700BF352500089D2500082F
:10253000AB25000808B50346806B1B681B6813F4C5
:10254000807F1AD10023C384026802F1140353E888
:10255000003F23F08003143242E800310029F3D118
:10256000026802F10C0353E8003F43F040030C32D1
:1025700042E800310029F3D108BD01F093FEFBE7EA
:1025800008B50168CA6822F04002CA60202280F8BB
:10259000412001F087FE002008BD704708B5806B20
:1025A000FFF7FBFF08BD7047704710B5846B2368C9
:1025B0005A6994F84130DBB2212B10D023685A6954
:1025C00002F0400294F84230DBB2222B11D0636C4F
:1025D00043F0100363642046FFF7E6FF10BD02F0EE
:1025E0008002002AEAD00023E3842046FFF73AFE67
:1025F000E4E7002AEBD00023E3852046FFF742FE04
:10260000E5E708B5806B0023C385C384FFF7CCFFE3
:1026100008BD704790F84230DBB2222B69D1836845
:10262000B3F5805F4FD0826AB3F5805F04D0002B92
:1026300056D10369002B53D103685B681370836A1A
:1026400001338362C38D9BB2013B9BB2C385002BD8
:1026500051D100B583B00268D36823F02003D36062
:102660000268D36823F48073D3600268536923F04F
:1026700001035361202380F8423000234363036B3E
:10268000012B33D100230363026802F10C0353E8EA
:10269000003F23F010030C3242E800310029F3D14F
:1026A00003681A6812F0100F06D0002201921A680F
:1026B00001925B680193019B818DFFF7AAFF0020C7
:1026C00003B05DF804FB0269002AACD1826A03689A
:1026D0005B68C3F308031380836A02338362B1E744
:1026E00003685B6803F07F031370A8E7FFF75BFFE5
:1026F000E5E70220704700207047000010B582B067
:10270000044602681368D068516913F00F0F09D1AD
:1027100013F0200F0CD010F0200F09D02046FFF747
:1027200079FF16E011F0010115D110F4907F12D15C
:10273000216B012979D013F0800F03D010F0800FA6
:1027400040F0148113F0400F03D010F0400F40F020
:10275000118102B010BD13F0010F06D010F4807F7C
:1027600003D0626C42F00102626413F0040F04D0E3
:1027700019B1626C42F00202626413F0020F04D0DD
:1027800019B1626C42F00402626413F0080F07D0C2
:1027900010F0200F00D119B1626C42F0080262649F
:1027A000626C002AD5D013F0200F02D010F0200F59
:1027B00029D123685B6903F04003626C12F0080FB3
:1027C00000D163B32046FFF75DFD23685B6913F01A
:1027D000400F20D0226802F1140353E8003F23F099
:1027E0004003143242E800310029F3D1E36B73B1A6
:1027F000624A1A65E06BFEF722FE0028A9D0E06B62
:10280000036D9847A5E72046FFF704FFD1E7204670
:10281000FFF7CAFE9DE72046FFF7C6FE99E7204670
:10282000FFF7C2FE0023636493E713F0100F82D01A
:1028300010F0100F3FF47FAF002301931368019352
:1028400053680193019B536913F0400F52D0E26B20
:1028500013685B689BB2002B3FF47BAFA18D99425C
:102860007FF677AFE385D369B3F5807F37D02268F1
:1028700002F10C0353E8003F23F480730C3242E86A
:1028800000310029F3D1226802F1140353E8003F1C
:1028900023F00103143242E800310029F3D1226809
:1028A00002F1140353E8003F23F04003143242E8DE
:1028B00000310029F3D1202384F842300023236320
:1028C000226802F10C0353E8003F23F010030C329E
:1028D00042E800310029F3D1E06BFEF766FD0223E8
:1028E0006363A18DE38D9BB2C91A89B22046FFF7BD
:1028F00090FE2EE7A18DE38D9BB2C91A89B2E38DBC
:102900009BB2002B3FF425AF00293FF422AF226891
:1029100002F10C0353E8003F23F490730C3242E8B9
:1029200000300028F3D1226802F1140353E8003F7D
:1029300023F00103143242E800300028F3D12023B1
:1029400084F8423000232363226802F10C0353E829
:10295000003F23F010030C3242E800300028F3D18E
:10296000022363632046FFF754FEF2E62046FFF79A
:10297000B7FCEEE62046FFF703FEEAE60326000872
:10298000842801D0033070470020704708B500F05C
:10299000B7FF002008BD2DE9F04387B00E4644691B
:1029A000C4B18569B5B14768D0F80080D0F81090FF
:1029B000B0F90800FFF7E4FF029501940090334658
:1029C0004A464146384600F02DFF0590059807B06D
:1029D000BDE8F083446805680769B0F90800FFF7AF
:1029E000CFFF05AB019300903346BAB2294620468B
:1029F00000F053FF0128E9D00020E8E708B500B94E
:102A0000012001F0C7F8002008BD00F10803436071
:102A10004FF0FF328260C3600361002303607047A0
:102A200000230361704743684B609A688A60516075
:102A300099600861036801330360704730B40D6822
:102A4000B5F1FF3F11D000F108031C465B681A681E
:102A5000AA42FAD963684B6099608C606160086132
:102A600003680133036030BC70470469F2E703690F
:102A7000416882688A60416851605A68824206D023
:102A8000002202611A68013A1A6018687047826869
:102A90005A60F5E782B0002301930D4B1B68B3F138
:102AA000FF3F08D04FF0500383F31188BFF36F8FBF
:102AB000BFF34F8FFEE74FF0500383F31188BFF34E
:102AC0006F8FBFF34F8F019B002BFCD002B070477C
:102AD0000C00002008480068006880F308884FF068
:102AE000000080F3148862B661B6BFF34F8FBFF366
:102AF0006F8F00DF00BF000008ED00E0DFF80C0082
:102B0000016841F4700101607047000088ED00E049
:102B10004FF0807340F8043C21F0010140F8081C9C
:102B2000054B40F80C3C40F8202C6FF0020340F8B5
:102B3000243C4438704700BF952A0008000000007C
:102B4000074B19680868B0E8F04F80F30988BFF3B5
:102B50006F8F4FF0000080F311887047AFF3008053
:102B6000204100204FF0500383F31188BFF36F8F93
:102B7000BFF34F8F0B4A136801331360012B00D052
:102B800070474FF0E023D3F8043D13F0FF0FF7D068
:102B90004FF0500383F31188BFF36F8FBFF34F8F54
:102BA000FEE700BF0C000020094B1B6843B94FF043
:102BB000500383F31188BFF36F8FBFF34F8FFEE78E
:102BC000013B034A13600BB983F31188704700BFC0
:102BD0000C000020000000000000000000000000C9
:102BE000EFF30980BFF36F8F154B1A681EF0100FBB
:102BF00008BF20ED108A20E9F04F10602DE9090090
:102C00004FF0500080F31188BFF34F8FBFF36F8FE9
:102C100000F0E6FF4FF0000080F3118809BC19684E
:102C20000868B0E8F04F1EF0100F08BFB0EC108A33
:102C300080F30988BFF36F8F704700BFAFF3008048
:102C40002041002008B54FF0500383F31188BFF3F3
:102C50006F8FBFF34F8F00F095FE28B14FF0E02348
:102C60004FF08052C3F8042D002383F3118808BD70
:102C70004FF0E022002313619361054B1B68054967
:102C8000A1FB03139B09013B5361072313617047A9
:102C900000000020D34D62104FF0E023D3F8002D48
:102CA0003D4B9A421CD04FF0E023D3F8002D3B4B14
:102CB0009A421ED030B583B0394B1A78D2B2019205
:102CC000FF221A701B78DBB28DF803309DF80330B9
:102CD00003F05003334A1370334B07221A601BE092
:102CE0004FF0500383F31188BFF36F8FBFF34F8F03
:102CF000FEE74FF0500383F31188BFF36F8FBFF3EC
:102D00004F8FFEE7284A1368013B13609DF803309C
:102D10005B00DBB28DF803309DF8033013F0800FB9
:102D2000F0D1214B1B68032B08D04FF0500383F3E5
:102D30001188BFF36F8FBFF34F8FFEE71B021A4A54
:102D4000136003F4E0631360019BDBB2144A137059
:102D50004FF0E024D4F8203D43F47003C4F8203D44
:102D6000D4F8203D43F07043C4F8203DFFF780FFC6
:102D700000250E4B1D60FFF7C1FED4F8343F43F031
:102D80004043C4F8343FFFF7A5FE00F029FFFFF7EA
:102D900081FE284603B030BD71C20F4170C20F41A1
:102DA00000E400E0D4030020D00300200C00002049
:102DB000124A12F0070F1ED0D11D21F00701C1F5F4
:102DC000705313440A460E480260002141601344C8
:102DD000083B23F007030B48036059601960991AF8
:102DE00051601360084B1960084B1960084B4FF095
:102DF00000421A6070474FF47053E4E7F803002074
:102E0000F0030020EC030020E4030020E80300208E
:102E1000D8030020164B1A461B688342FBD3516827
:102E200002EB010C844509D0416800EB010C6345BD
:102E300009D00360904219D0106070474068014487
:102E400051601046F0E710B40A4C2468A3420BD03E
:102E50005B681944416013681B680360904200D0AE
:102E600010605DF8044B70470460F7E7704700BFDF
:102E7000F0030020EC03002038B5044600F07AFD92
:102E8000384B1B68B3B1384B1B681C4250D1002C27
:102E900050D004F1080214F0070F02D022F007020C
:102EA0000832002A55D0314B1B68934253D3304926
:102EB0000C6804E0FFF77CFFE5E721461C466368E9
:102EC000934202D22368002BF7D1264B1B68A34202
:102ED00043D00D68083523680B6063689B1A102B7C
:102EE00010D9A01810F0070F08D04FF0500383F34B
:102EF0001188BFF36F8FBFF34F8FFEE743606260AF
:102F0000FFF788FF626819490B689B1A0B60194923
:102F100009688B4201D217490B60134B1B6813439E
:102F2000636000232360144A13680133136002E0D6
:102F3000002500E0002500F0B1FD15F0070F0ED0D0
:102F40004FF0500383F31188BFF36F8FBFF34F8FA0
:102F5000FEE70025EFE70025EDE70025EBE7284633
:102F600038BD00BFEC030020D8030020E803002098
:102F7000F0030020E4030020E0030020002834D008
:102F800038B50446A0F1080550F8043C174A126809
:102F9000134208D14FF0500383F31188BFF36F8FB2
:102FA000BFF34F8FFEE750F8081C41B14FF05003BC
:102FB00083F31188BFF36F8FBFF34F8FFEE723EAD0
:102FC000020340F8043C00F0D5FC54F8041C084A05
:102FD00013680B4413602846FFF71CFF054A13686B
:102FE0000133136000F05AFD38BD7047D80300204C
:102FF000E8030020DC03002010B50446FFF7B2FD13
:10300000A26BE36B9A4204D00024FFF7CDFD20466B
:1030100010BD0124F9E710B50446FFF7A3FDA36B2B
:1030200023B90124FFF7C0FD204610BD0024F9E7B5
:1030300070B504461546866B026C5AB903681BB11D
:1030400000200136A66370BD806800F0D7FE002323
:10305000A360F6E76DB94068FDF7EAFB6368226C90
:1030600013446360A268934219D3236863602846BF
:10307000E7E7C068FDF7DCFBE368226C51429B1A6E
:10308000E3602268934202D2A3680B44E360022DFE
:1030900001D00020D5E726B1013E0020D1E7284627
:1030A000CFE70020CDE70346026C6AB110B50846B1
:1030B000D9681144D9609C68A14201D31968D960CC
:1030C000D968FDF7B5FB10BD704738B50546FFF769
:1030D00049FD95F8454064B201E0013C64B2002C22
:1030E0000ADD6B6A43B105F1240000F0DDFD002824
:1030F000F3D000F06DFEF0E7FF2385F84530FFF7D1
:1031000053FDFFF72FFD95F8444064B201E0013C08
:1031100064B2002C0ADD2B6943B105F1100000F008
:10312000C3FD0028F3D000F053FEF0E7FF2385F83D
:103130004430FFF739FD38BD38B5E0B10D460446DF
:10314000FFF710FD2368E26B216C01FB0230A060E9
:103150000020A0636360013A02FB0133E360FF23B8
:1031600084F8443084F84530FDB9236963B9FFF72A
:103170001BFD012038BD4FF0500383F31188BFF3CE
:103180006F8FBFF34F8FFEE704F1100000F08CFD4E
:103190000028ECD04FF0E0234FF08052C3F8042D0C
:1031A000BFF34F8FBFF36F8FE1E704F11000FFF71C
:1031B0002CFC04F12400FFF728FCD8E710B50346E7
:1031C00002980C4631B90060C36304640121FFF723
:1031D000B3FF10BD0260F7E740B94FF0500383F32F
:1031E0001188BFF36F8FBFF34F8FFEE7F0B583B049
:1031F0000D461446064601FB00F04830FFF73CFE42
:10320000074650B1002380F846300090234600F175
:10321000480229463046FFF7D1FF384603B0F0BDDB
:10322000F0B585B0019288B10F461D460446B1B194
:10323000022D20D1E36B012B1DD04FF0500383F3FF
:103240001188BFF36F8FBFF34F8FFEE74FF050032E
:1032500083F31188BFF36F8FBFF34F8FFEE7036CCB
:10326000002BE5D04FF0500383F31188BFF36F8F2D
:10327000BFF34F8FFEE700F0B1FD064658B9019B42
:10328000002B48D04FF0500383F31188BFF36F8FAA
:10329000BFF34F8FFEE700263DE02A463946204621
:1032A000FFF7C6FE636A7BB948B14FF0E0234FF0E9
:1032B0008052C3F8042DBFF34F8FBFF36F8FFFF71A
:1032C00073FC012005B0F0BD04F1240000F0ECFC1B
:1032D0000028F4D04FF0E0234FF08052C3F8042DC3
:1032E000BFF34F8FBFF36F8FE9E7FFF75DFC00205F
:1032F000E8E702A800F01EFD012619E0002384F88B
:10330000443021E0002384F8453023E02046FFF7D5
:10331000DCFE00F0C3FBFFF725FCA26BE36B9A42D7
:10332000BBD3022DB9D0019B002BDED0002EE0D004
:10333000FFF73AFC00F01EFBFFF714FC94F8442062
:1033400052B2B2F1FF3FD9D094F8452052B2B2F157
:10335000FF3FD7D0FFF728FC01A902A800F0F6FC38
:10336000D8B92046FFF748FE0028CFD0019904F1D4
:10337000100000F081FC2046FFF7A7FE00F08EFB56
:103380000028C8D14FF0E0234FF08052C3F8042D3D
:10339000BFF34F8FBFF36F8FBDE72046FFF795FE5A
:1033A00000F07CFB00208DE7F0B585B0019290B174
:1033B0000F460446C1B100F011FD064600BB019B5B
:1033C000002B5ED04FF0500383F31188BFF36F8F53
:1033D000BFF34F8FFEE74FF0500383F31188BFF325
:1033E0006F8FBFF34F8FFEE7036C002BE3D04FF0DE
:1033F000500383F31188BFF36F8FBFF34F8FFEE746
:1034000000263EE039462046FFF74DFE013DA5630C
:10341000236923B9FFF7C8FB012005B0F0BD04F113
:10342000100000F041FC0028F4D04FF0E0234FF0F2
:103430008052C3F8042DBFF34F8FBFF36F8FE9E7BE
:10344000FFF7B2FB0020E8E702A800F073FC0126BA
:1034500021E0002384F8443029E0002384F845303B
:103460002BE02046FFF731FE00F018FB09E0204674
:10347000FFF72BFE00F012FB2046FFF7CCFD0028E3
:103480003FD1FFF76FFBA56B002DBBD1019B002B3C
:10349000D6D0002ED8D0FFF787FB00F06BFAFFF7ED
:1034A00061FB94F844305BB2B3F1FF3FD1D094F8A4
:1034B00045305BB2B3F1FF3FCFD0FFF775FB01A9F9
:1034C00002A800F043FC0028D1D12046FFF7A3FD5D
:1034D0000028C6D0019904F1240000F0CDFB20465D
:1034E000FFF7F3FD00F0DAFA0028CAD14FF0E0232D
:1034F0004FF08052C3F8042DBFF34F8FBFF36F8F8F
:10350000BFE7002089E70000084B1B681B6823B950
:10351000074B4FF0FF321A607047044B1B68DB68A3
:10352000DB685A68024B1A60704700BF6840002091
:10353000004000202DE9F04707469846089DDDF839
:1035400024900A9C266B02F18042013A06EB820627
:1035500026F00706C1B308464FF0000CBCF10F0F70
:1035600009D810F80C2004EB0C0383F8342012B1B6
:103570000CF1010CF2E7002384F84330062D00D94A
:103580000625E56265644FF0000AC4F848A0201DD6
:10359000FFF746FA04F11800FFF742FA2461C5F17B
:1035A0000705A5616462C4F84CA084F850A04246A7
:1035B00039463046FFF7ACFA2060B9F1000F01D070
:1035C000C9F80040BDE8F087002384F83430D5E71F
:1035D00038B5002407E004EB840293000E48184439
:1035E000FFF713FA0134062CF5D90C4D2846FFF7E6
:1035F0000CFA0B4C2046FFF708FA0A48FFF705FAC9
:103600000948FFF702FA0948FFF7FFF9084B1D6068
:10361000084B1C6038BD00BF944000208040002053
:103620006C400020504000203C40002024400020FE
:10363000684000206440002010B50446FFF792FA6D
:10364000214A136801331360204B1B685BB1204B88
:103650001B686BB91D4B1B68DA6AE36A9A4207D88C
:103660001A4B1C6004E0194B1C601368012B28D016
:10367000184A136801331360E06A01238340164A35
:1036800011680B43136000EB8000211D134B03EB0B
:103690008000FFF7C8F9FFF787FA0D4B1B687BB175
:1036A0000A4B1B68DA6AE36A9A4209D24FF0E023B8
:1036B0004FF08052C3F8042DBFF34F8FBFF36F8FCD
:1036C00010BDFFF785FFD3E72040002020410020F8
:1036D00014400020044000201840002094400020A6
:1036E00010B5044690F8513063B1012B11D0022B74
:1036F0000ED04FF0500383F31188BFF36F8FBFF3E9
:103700004F8FFEE7006BFFF739FC2046FFF736FCD2
:1037100010BDFFF733FCFBE70F4B1B68D3B110B5AF
:10372000FFF720FA0D4BDB68DC68201DFFF79FF9DF
:103730000B4A1368013B1360074A1368013B13608F
:10374000FFF732FA2046FFF7CBFF034B1B68002B35
:10375000E6D110BD704700BF384000203C4000203B
:103760002040002008B5FFF7D7FF074B1B68012B4F
:10377000F9D94FF0E0234FF08052C3F8042DBFF386
:103780004F8FBFF36F8FEEE79440002070B5044673
:103790000D461D4B1E681D4B18680430FFF767F976
:1037A00048B91A4B1B68DB6A01229A4018490B681A
:1037B00023EA02030B60B4F1FF3F0DD03444134BF6
:1037C0001B685C60A64210D9124B18680F4B196831
:1037D0000431FFF733F970BD002DEFD00B4B1968A2
:1037E00004310D48FFF71FF9F5E70C4B1868074B3C
:1037F00019680431FFF722F9094B1B68A342EAD983
:10380000074B1C60E7E700BF1C4000202041002060
:103810001840002064400020244000206840002020
:103820000040002030B587B00B9C7CB10C9DB5B139
:1038300054250495049D542D1AD04FF0500383F362
:103840001188BFF36F8FBFF34F8FFEE74FF0500328
:1038500083F31188BFF36F8FBFF34F8FFEE74FF0F5
:10386000500383F31188BFF36F8FBFF34F8FFEE7D1
:10387000049D0C9D2C63022485F851400024039480
:10388000029505AC01940A9C0094FFF753FE0C9836
:10389000FFF7D2FE059807B030BD2DE9F04385B0A3
:1038A0000746884614461E469000FFF7E5FA08B31F
:1038B00081465420FFF7E0FA0546A8B1C0F83090E1
:1038C000002380F85130039302900D9B01930C9BD1
:1038D00000933346224641463846FFF72BFE2846E2
:1038E000FFF7AAFE012007E04846FFF747FB4FF02D
:1038F000FF3001E04FF0FF3005B0BDE8F08300007D
:1039000010B588B000240594069407AA06A905A856
:10391000FDF78EF8059B0293069B019300942346C6
:10392000079A0E490E48FFF77DFF0E4B186090B1C5
:103930004FF0500383F31188BFF36F8FBFF34F8FA6
:10394000094B4FF0FF321A60084B01221A60084BF6
:103950001C60FFF7A1F908B010BD00BF805A000835
:1039600065370008FC3F0020004000201440002084
:103970001C400020024A136801331360704700BFE7
:10398000F83F0020F8B53A4B1B68002B69D1394B42
:103990001D6801351D60C5B9374B1B681B6843B1F5
:1039A0004FF0500383F31188BFF36F8FBFF34F8F36
:1039B000FEE7314A1168314B186810601960304ACF
:1039C000136801331360FFF79FFD2E4B1B68AB425A
:1039D0003DD900272C4B1B68DB6A03EB83039A005D
:1039E0002A4B9B58012B00D90127294B1B68002B20
:1039F0003CD001273AE001271F4B1B681B6843B3EB
:103A00001D4B1B68DB68DC6863689D4226D3261D5E
:103A10003046FFF72CF8A36A1BB104F11800FFF73A
:103A200026F8E36A01229A401A49086802430A60AC
:103A300003EB83039A00314614481044FEF7F3FF6A
:103A4000E26A114B1B68DB6A9A42D4D2D4E70027A2
:103A5000D2E70C4B4FF0FF321A60BBE7094A136004
:103A6000B8E70D4A13680133136000273846F8BDE4
:103A7000F83F00201C4000206840002064400020E7
:103A800008400020004000202041002094400020F9
:103A90000C400020184000201040002038B5354B65
:103AA0001B6843B94FF0500383F31188BFF36F8F46
:103AB000BFF34F8FFEE7FFF755F82E4B1A68013A18
:103AC0001A601B68002B4FD12B4B1B680BB90024CD
:103AD0004BE00024294B1B681BB3284BDB68DC68D8
:103AE00004F11800FEF7C3FF251D2846FEF7BFFFAF
:103AF000E06A01238340224A11680B43136000EB04
:103B0000800029461F4B03EB8000FEF78CFFE26A22
:103B10001D4B1B68DB6A9A42DCD31C4B01221A60E6
:103B2000D8E70CB1FFF7F0FC194B1C6884B9174BB0
:103B30001C68D4B14FF0E0234FF08052C3F8042D3D
:103B4000BFF34F8FBFF36F8F01240EE0013C07D00E
:103B5000FFF718FF0028F9D00C4B01221A60F5E797
:103B60000B4B00221A60E2E70024FFF71DF8204605
:103B700038BD00BFF83F002020400020504000200A
:103B80001840002094400020204100200C400020DC
:103B90001040002010B5A8B10446104B1B6843B17B
:103BA0004FF0500383F31188BFF36F8FBFF34F8F34
:103BB000FEE7FFF7DFFE00212046FFF7E7FDFFF7F6
:103BC0006DFF48B94FF0E0234FF08052C3F8042D49
:103BD000BFF34F8FBFF36F8F10BD00BFF83F0020C2
:103BE000204B1B681BB1204B01221A6070471E4BF3
:103BF00000221A601D4B1B68B3FA83F3DBB2C3F1DA
:103C00001F0303EB83018A0019498A5842B94FF018
:103C1000500383F31188BFF36F8FBFF34F8FFEE71D
:103C2000134803EB83018A000244516849685160DC
:103C300003EB830C4FEA8C0208320244914209D014
:103C400003EB83039A000A4B13445B68DA68094B61
:103C50001A607047486862469100054A0A445060FD
:103C6000EEE700BFF83F00200C4000201840002085
:103C7000944000202041002058B110B50C46094A5C
:103C800011681831FEF7DAFE01212046FFF77EFDAC
:103C900010BD4FF0500383F31188BFF36F8FBFF354
:103CA0004F8FFEE72041002038B5C368DC6824B39D
:103CB00004F118052846FEF7DAFE184B1B682BBBEB
:103CC000251D2846FEF7D3FEE06A01238340144AEF
:103CD00011680B43136000EB80002946114B03EB86
:103CE0008000FEF7A0FEE26A0F4B1B68DB6A9A4277
:103CF00011D901200D4B186038BD4FF0500383F3EC
:103D00001188BFF36F8FBFF34F8FFEE72946084836
:103D1000FEF789FEE7E70020EEE700BFF83F00204E
:103D20001840002094400020204100200C4000203A
:103D300050400020034B1B680360034B1B6843602B
:103D4000704700BF084000201C400020F8B5C8B1F3
:103D50000C460546F9B1FEF705FF1B4B19686B6869
:103D6000C81A2268B2F1FF3F26D0184E36682F6875
:103D7000B74201D08B4224D9824215D80023236058
:103D800001241AE04FF0500383F31188BFF36F8FC3
:103D9000BFF34F8FFEE74FF0500383F31188BFF35B
:103DA0006F8FBFF34F8FFEE75B1A134423602846E3
:103DB000FFF7C0FF002400E00024FEF7F5FE2046D8
:103DC000F8BD0124F9E700BF1C4000200840002096
:103DD000014B01221A6070470C400020054B1B6804
:103DE00033B1054B1B680BB10020704702207047B0
:103DF0000120704714400020F83F002000284BD0DD
:103E000038B50446264B1B68834208D04FF0500358
:103E100083F31188BFF36F8FBFF34F8FFEE7836C7F
:103E200043B94FF0500383F31188BFF36F8FBFF393
:103E30004F8FFEE7013B8364C16A426C91422DD0F3
:103E40000BB1002038BD051D2846FEF710FE68B9ED
:103E5000E36A03EB8302920012498A5832B90122C5
:103E60009A4011490B6823EA02030B60606CE06220
:103E7000C0F10703A361012404FA00F30A4A1168A0
:103E80000B43136000EB80002946064B03EB8000D8
:103E9000FEF7C9FD2046D5E7002070470020D1E796
:103EA0002041002094400020184000200346104686
:103EB00005E013F8011B41400348405C11464A1ECF
:103EC0000029F6D1704700BFA85C000850B138B592
:103ED0000546022905D94C1EFF222146FFF7E6FFC1
:103EE000285538BD70470000034698B1481E99B167
:103EF00010B413F8011B5140C9B2084C34F811102A
:103F000081EA1222014601380029F2D110465DF8FB
:103F1000044B70474FF6FF7210467047A85A0008CE
:103F200080B170B50C46054602290AD98E1E064B93
:103F30001A883146FFF7D8FFA855013CC0F3072087
:103F4000285570BD704700BF1000002038B5002212
:103F500018211520FFF740F9224A106028B19FED83
:103F6000220A01F0BDFA002409E0FCF7C9FEF6E7D9
:103F700058201E4B00FB043000F03EF80134052CA5
:103F8000F6DD2CE000F04DFB194C208000F0C3FC66
:103F9000608000F02CFEA08000F0A5FFE08001F022
:103FA0001EF9208101F087FA608134F9151058203C
:103FB0000E4B00FB053000F0FFF80E4B03EB8503C2
:103FC00083ED000A0135052DDCDD00231A46094981
:103FD00004480068FFF724F90C20FFF7DBFD0025FB
:103FE000F1E700BF58430020920A063F2441002019
:103FF0003443002040430020002304E000EB830210
:10400000002111600133132BF8DD002380F85030BC
:10401000002343657047000090F8502000EB8203B6
:1040200083ED000A0132054B83FB0213DB1003EB27
:104030008303A2EB830380F850307047676666669F
:1040400094B00023132B09DC00EB8302116814AA3F
:1040500002EB830242F8501C0133F3E700201FE01B
:104060001346C0F113029A4219DD14AA02EB83022F
:1040700052ED147A5A1C14A901EB820111ED147A45
:10408000F4EEC77AF1EE10FAEADD14A901EB83032E
:1040900003ED147A01EB820343ED147AE0E701307B
:1040A000122801DC0023DCE70123DFED097A07E0B9
:1040B00014AA02EB830212ED147A77EE877A0133A9
:1040C000122BF5DDB3EE020A87EE800A14B07047BA
:1040D00000000000DFED0A7AB4EEE70AF1EE10FA14
:1040E00001DDB0EE670A9FED067AC0EE077A9FED1C
:1040F000057A67EE877A9FED040A37EE800A7047EB
:1041000000004843CCCC4C3FCDCCCC3D10B52DED80
:10411000028B0446B0EE408AD0ED158A30EE687A04
:10412000DFED237AB4EEE77AF1EE10FA26DDDFED6B
:10413000217A30EE678A38EE680AB0EEC00AFFF7DF
:10414000C9FF28EE008AF7EE007A77EEC07A68EEB3
:10415000A78A38EE288A84ED158AB5EEC08AF1EE7A
:1041600010FA19D4DFED137AB4EEE78AF1EE10FA03
:1041700018DB38EE678A84ED158A13E078EEC07A92
:104180009FED0B7AF4EEC77AF1EE10FAD3DDDFED96
:10419000097A30EE278ACEE7DFED067A38EE278AF5
:1041A00084ED158A94ED150ABDEC028B10BD00BF9D
:1041B000000034430000B44310B50446084600F044
:1041C00045FA2046FFF728FF2046FFF739FF204633
:1041D000FFF79CFF10BD000070B505461446A523EF
:1041E0001370A2F801101D490A78531CDBB20B7042
:1041F000E2700BB901220A700026267105212046C3
:10420000FFF764FE022363710323A371314619E0B3
:104210008B0005EB810215F821C004EB810080F8CA
:1042200007C0581C92F801C0204480F807C003F171
:10423000020C9078A4448CF807000333D27823440E
:10424000DA7101310529E3DD002384F8253084F893
:10425000263027212046FFF763FE70BD5C43002017
:104260000C4B1B7803B1704710B50A4B01221A7032
:10427000094C217801EB8103C1EBC3012722074BD5
:1042800019440748FEF714F92378B3FA83F35B095E
:10429000237010BD904300209143002094430020E0
:1042A000840300200268044B9A4200D07047034BFD
:1042B00000221A70FAE700BF00440040904300203B
:1042C00030B58BB040E0254A02EB83021168244AE6
:1042D00002EB830211600133052BF4DD272200215C
:1042E000684601F0A1FA6A461E211D48FFF774FFD7
:1042F0001C4B1B7803EB8302C3EBC2026C461A4BC8
:1043000003EB020C08ADA646BEE80F00CCF8000097
:10431000CCF80410CCF80820CCF80C3074460CF122
:10432000100CAE45EFD1DEF80000CCF80000BEF86E
:1043300004209EF80630ACF804208CF80630FFF715
:104340008FFF0C20FFF726FC00220449074B18685A
:10435000FFF72AF80128F4D10023BDE760430020CD
:1043600078430020914300209443002058430020CC
:1043700038B54FF4FA740A4B1B6913F0020F0DD1D4
:10438000013C0BD0064D4FF48033AB610120FCF7AC
:1043900095FC0120A861FCF791FCECE738BD00BF5B
:1043A0000008024070B5FFF7E3FF0E4C4FF4803673
:1043B000A6610120FCF782FC0223A3610120FCF727
:1043C0007DFC0125A5612846FCF778FC4FF40033FD
:1043D000A3612846FCF772FCA6612846FCF76EFC38
:1043E00070BD00BF0008024038B5044600250FE04C
:1043F000164B4FF400329A616400E4B20120FCF7DE
:104400005DFC0120114B9861FCF758FC0135EDB2C1
:10441000072D0DD80D4B4FF480329A610120FCF727
:104420004DFC14F0800FE3D0084B02229A61E3E7C1
:10443000064C4FF48033A3610120FCF73FFC0223BC
:10444000A3610120FCF73AFC38BD00BF0008024020
:104450002DE9F041114C4FF48038C4F81880012048
:10446000FCF72CFC0227A7610120FCF727FC0125A3
:10447000A5612846FCF722FC26693E40C4F8188056
:104480002846FCF71BFCA7612846FCF717FC16B171
:104490002846BDE8F0810020FBE700BF000802408D
:1044A000F8B50D4C4FF48037A7610120FCF706FCEE
:1044B0000226A6610120FCF701FC0125A561284622
:1044C000FCF7FCFBA7612846FCF7F8FBA661284631
:1044D000FCF7F4FBF8BD00BF0008024070B50E4CBD
:1044E0004FF48036A6610120FCF7E8FB4FF400335F
:1044F000A3610120FCF7E2FB0125A5612846FCF73A
:10450000DDFBA6612846FCF7D9FB0223A361284600
:10451000FCF7D4FB70BD00BF00080240F8B50746A9
:104520000024264608E0104B4FF480329A610120A7
:10453000FCF7C4FB0134E4B2072C0DD80A4D01206E
:10454000A861FCF7BBFB7600F6B22B6913F0020FF3
:10455000E9D046F00106E6E71FB1FFF7A1FF3046BC
:10456000F8BDFFF7BBFFFAE70008024038B50C4C76
:104570004FF48033A3610120FCF7A0FB4FF400331C
:10458000A3610120FCF79AFB0125A5612846FCF7F1
:1045900095FB0223A3612846FCF790FB38BD00BFC2
:1045A00000080240F8B505460F4616461C46FFF7C0
:1045B000F9FE680000F0FE00FFF716FFFFF748FF66
:1045C000A0B93846FFF710FFFFF742FF90B9FFF799
:1045D000E9FE680040F00100C0B2FFF705FFFFF7F9
:1045E00037FF90B1FFF7C2FF012019E0FFF7BEFFD0
:1045F000012015E0FFF7BAFF012011E00120FFF7CD
:104600008DFF3070013CE4B2013634B1012CF5D09D
:104610000020FFF783FF3070F4E7FFF7A7FF204685
:10462000F8BD00B583B00023ADF80430022301AA21
:104630000C213620FFF7B6FF9DF804309DF80500E9
:1046400040EA032000B203B05DF804FB08B5FCF7B4
:104650001BF80022034BFBF79BFDFCF77FF800EEF5
:10466000100A08BD0080B63F38B54FF4FA740A4B03
:104670001B6913F0080F0ED1013C0CD0064D4FF40E
:104680008023AB610120FCF719FB0423AB610120FF
:10469000FCF714FBEBE738BD0000024038B5FFF72C
:1046A000E3FF0E4C4FF48025A5610120FCF706FBCB
:1046B0000823A3610120FCF701FB0423A36101206F
:1046C000FCF7FCFA4FF40023A3610120FCF7F6FA93
:1046D000A5610120FCF7F2FA38BD00BF00000240DE
:1046E00038B50446002510E0164B4FF400229A61BD
:1046F0006400E4B20120FCF7E1FA124B04229A6153
:104700000120FCF7DBFA0135EDB2072D0DD80D4B7A
:104710004FF480229A610120FCF7D0FA14F0800F48
:10472000E2D0084B08229A61E2E7064C4FF480235E
:10473000A3610120FCF7C2FA0823A3610120FCF762
:10474000BDFA38BD00000240F8B5104C4FF4802788
:10475000A7610120FCF7B2FA0826A6610120FCF748
:10476000ADFA0423A3610A20FCF7A8FA25693540B5
:10477000A7610120FCF7A2FAA6610120FCF79EFACE
:104780000DB10120F8BD0020FCE700BF0000024091
:1047900070B50D4C4FF48026A6610120FCF78EFA0F
:1047A0000825A5610120FCF789FA0423A3610A20EA
:1047B000FCF784FAA6610120FCF780FAA5610120CC
:1047C000FCF77CFA70BD00BF0000024038B50E4C0B
:1047D0004FF48025A5610120FCF770FA4FF4002307
:1047E000A3610120FCF76AFA0423A3610A20FCF705
:1047F00065FAA5610120FCF761FA0823A361012095
:10480000FCF75CFA38BD00BF00000240F8B507466F
:104810000024254608E0114B4FF480229A610120C4
:10482000FCF74CFA0134E4B2072C0ED80B4E0423EB
:10483000B3610120FCF742FA6D00EDB2336913F069
:10484000080FE8D045F00105E5E71FB1FFF7A0FF2D
:104850002846F8BDFFF7BAFFFAE700BF00000240A4
:1048600010B50C4C4FF48023A3610120FCF726FA0D
:104870004FF40023A3610120FCF720FA0423A36175
:104880000120FCF71BFA0823A3610120FCF716FAAC
:1048900010BD00BF00000240F8B505460F461646A1
:1048A0001C46FFF7FBFE680000F0FE00FFF718FF54
:1048B000FFF74AFFA0B93846FFF712FFFFF744FFA2
:1048C00090B9FFF7EBFE680040F00100C0B2FFF7BF
:1048D00007FFFFF739FF90B1FFF7C2FF012019E092
:1048E000FFF7BEFF012015E0FFF7BAFF012011E03E
:1048F0000120FFF78BFF3070013CE4B2013634B188
:10490000012CF5D00020FFF781FF3070F4E7FFF7AE
:10491000A7FF2046F8BD00B583B00023ADF80430F2
:10492000022301AA0C213620FFF7B6FF9DF80430C0
:104930009DF8050040EA032000B203B05DF804FBD7
:1049400038B54FF4FA740A4B1B6913F0200F0ED1DF
:10495000013C0CD0064D4FF48013AB610120FCF7F5
:10496000ADF91023AB610120FCF7A8F9EBE738BDE6
:104970000008024038B5FFF7E3FF0E4C4FF48015F6
:10498000A5610120FCF79AF92023A3610120FCF71F
:1049900095F91023A3610120FCF790F94FF400135F
:1049A000A3610120FCF78AF9A5610120FCF786F9D3
:1049B00038BD00BF0008024038B50446002510E0AD
:1049C000164B4FF400129A616400E4B20120FCF728
:1049D00075F9124B10229A610120FCF76FF901352D
:1049E000EDB2072D0DD80D4B4FF480129A610120C6
:1049F000FCF764F914F0800FE2D0084B20229A6192
:104A0000E2E7064C4FF48013A3610120FCF756F94E
:104A10002023A3610120FCF751F938BD00080240B2
:104A2000F8B5104C4FF48017A7610120FCF746F948
:104A30002026A6610120FCF741F91023A3610A207A
:104A4000FCF73CF925693540A7610120FCF736F9F0
:104A5000A6610120FCF732F90DB10120F8BD00205C
:104A6000FCE700BF0008024070B50D4C4FF4801603
:104A7000A6610120FCF722F92025A5610120FCF7A1
:104A80001DF91023A3610A20FCF718F9A661012083
:104A9000FCF714F9A5610120FCF710F970BD00BF07
:104AA0000008024038B50E4C4FF48015A561012076
:104AB000FCF704F94FF40013A3610120FCF7FEF8A2
:104AC0001023A3610A20FCF7F9F8A5610120FCF787
:104AD000F5F82023A3610120FCF7F0F838BD00BFF2
:104AE00000080240F8B507460024254608E0114BAF
:104AF0004FF480129A610120FCF7E0F80134E4B22F
:104B0000072C0ED80B4E1023B3610120FCF7D6F80A
:104B10006D00EDB2336913F0200FE8D045F00105C8
:104B2000E5E71FB1FFF7A0FF2846F8BDFFF7BAFF82
:104B3000FAE700BF0008024010B50C4C4FF4801398
:104B4000A3610120FCF7BAF84FF40013A361012020
:104B5000FCF7B4F81023A3610120FCF7AFF8202381
:104B6000A3610120FCF7AAF810BD00BF00080240B5
:104B7000F8B505460F4616461C46FFF7FBFE6800D3
:104B800000F0FE00FFF718FFFFF74AFFA0B9384614
:104B9000FFF712FFFFF744FF90B9FFF7EBFE680045
:104BA00040F00100C0B2FFF707FFFFF739FF90B1F7
:104BB000FFF7C2FF012019E0FFF7BEFF012015E05B
:104BC000FFF7BAFF012011E00120FFF78BFF3070E3
:104BD000013CE4B2013634B1012CF5D00020FFF7DE
:104BE00081FF3070F4E7FFF7A7FF2046F8BD00B55E
:104BF00083B00023ADF80430022301AA0C21362033
:104C0000FFF7B6FF9DF804309DF8050040EA032049
:104C100000B203B05DF804FB38B54FF4FA740B4BE7
:104C20001B6913F4005F0FD1013C0DD0074D4FF00D
:104C30008053AB610120FCF741F84FF48053AB6126
:104C40000120FCF73BF8EAE738BD00BF0010024046
:104C500038B5FFF7E1FF0F4C4FF08055A5610120FB
:104C6000FCF72CF84FF40053A3610120FCF726F861
:104C70004FF48053A3610120FCF720F84FF000535C
:104C8000A3610120FCF71AF8A5610120FCF716F8D2
:104C900038BD00BF0010024038B50446002511E0C1
:104CA000184B4FF000529A616400E4B20120FCF707
:104CB00005F8144B4FF480529A610120FBF7FEFF78
:104CC0000135EDB2072D0ED80E4B4FF080529A6190
:104CD0000120FBF7F3FF14F0800FE1D0094B4FF4F4
:104CE00000529A61E0E7074C4FF08053A361012026
:104CF000FBF7E4FF4FF40053A3610120FBF7DEFF55
:104D000038BD00BF00100240F8B5114C4FF080577D
:104D1000A7610120FBF7D2FF4FF40056A6610120E6
:104D2000FBF7CCFF4FF48053A3610A20FBF7C6FFCB
:104D300025693540A7610120FBF7C0FFA66101206E
:104D4000FBF7BCFF0DB10120F8BD0020FCE700BF60
:104D50000010024070B50E4C4FF08056A661012045
:104D6000FBF7ACFF4FF40055A5610120FBF7A6FF50
:104D70004FF48053A3610A20FBF7A0FFA661012036
:104D8000FBF79CFFA5610120FBF798FF70BD00BFFA
:104D90000010024038B50F4C4FF08055A56101203E
:104DA000FBF78CFF4FF00053A3610120FBF786FF58
:104DB0004FF48053A3610A20FBF780FFA561012017
:104DC000FBF77CFF4FF40053A3610120FBF776FF54
:104DD00038BD00BF00100240F8B507460024254644
:104DE00008E0114B4FF080529A610120FBF766FFFB
:104DF0000134E4B2072C0FD80B4E4FF48053B3614B
:104E00000120FBF75BFF6D00EDB2336913F4005F27
:104E1000E7D045F00105E4E71FB1FFF79BFF284607
:104E2000F8BDFFF7B7FFFAE70010024010B50D4CD0
:104E30004FF08053A3610120FBF740FF4FF0005378
:104E4000A3610120FBF73AFF4FF48053A3610120D7
:104E5000FBF734FF4FF40053A3610120FBF72EFF53
:104E600010BD00BF00100240F8B505460F461646BB
:104E70001C46FFF7EDFE680000F0FE00FFF70CFF98
:104E8000FFF742FFA0B93846FFF706FFFFF73CFFE8
:104E900090B9FFF7DDFE680040F00100C0B2FFF7F7
:104EA000FBFEFFF731FF90B1FFF7C0FF012019E0D3
:104EB000FFF7BCFF012015E0FFF7B8FF012011E06C
:104EC0000120FFF789FF3070013CE4B2013634B1B4
:104ED000012CF5D00020FFF77FFF3070F4E7FFF7DB
:104EE000A5FF2046F8BD00B583B00023ADF804301F
:104EF000022301AA0C213620FFF7B6FF9DF80430EB
:104F00009DF8050040EA032000B203B05DF804FB01
:104F100038B54FF4FA740B4B1B6913F4005F0FD1D3
:104F2000013C0DD0074D4FF08053AB610120FBF7E2
:104F3000C5FE4FF48053AB610120FBF7BFFEEAE7EB
:104F400038BD00BF0004024038B5FFF7E1FF0F4C49
:104F50004FF08055A5610120FBF7B0FE4FF40053E0
:104F6000A3610120FBF7AAFE4FF48053A361012047
:104F7000FBF7A4FE4FF00053A3610120FBF79EFE58
:104F8000A5610120FBF79AFE38BD00BF0004024076
:104F900038B50446002511E0184B4FF000529A61D5
:104FA0006400E4B20120FBF789FE144B4FF48052F9
:104FB0009A610120FBF782FE0135EDB2072D0ED874
:104FC0000E4B4FF080529A610120FBF777FE14F0F0
:104FD000800FE1D0094B4FF400529A61E0E7074C93
:104FE0004FF08053A3610120FBF768FE4FF400539C
:104FF000A3610120FBF762FE38BD00BF0004024040
:10500000F8B5114C4FF08057A7610120FBF756FE11
:105010004FF40056A6610120FBF750FE4FF4805379
:10502000A3610A20FBF74AFE25693540A7610120EC
:10503000FBF744FEA6610120FBF740FE0DB1012005
:10504000F8BD0020FCE700BF0004024070B50E4C24
:105050004FF08056A6610120FBF730FE4FF400555B
:10506000A5610120FBF72AFE4FF48053A3610A20BB
:10507000FBF724FEA6610120FBF720FEA5610120BD
:10508000FBF71CFE70BD00BF0004024038B50F4C9A
:105090004FF08055A5610120FBF710FE4FF0005343
:1050A000A3610120FBF70AFE4FF48053A3610A209D
:1050B000FBF704FEA5610120FBF700FE4FF400534F
:1050C000A3610120FBF7FAFD38BD00BF00040240D8
:1050D000F8B507460024254608E0114B4FF08052F2
:1050E0009A610120FBF7EAFD0134E4B2072C0FD8E6
:1050F0000B4E4FF48053B3610120FBF7DFFD6D00D1
:10510000EDB2336913F4005FE7D045F00105E4E741
:105110001FB1FFF79BFF2846F8BDFFF7B7FFFAE77F
:105120000004024010B50D4C4FF08053A3610120E4
:10513000FBF7C4FD4FF00053A3610120FBF7BEFD58
:105140004FF48053A3610120FBF7B8FD4FF40053E7
:10515000A3610120FBF7B2FD10BD00BF00040240B7
:10516000F8B505460F4616461C46FFF7EDFE6800EB
:1051700000F0FE00FFF70CFFFFF742FFA0B9384632
:10518000FFF706FFFFF73CFF90B9FFF7DDFE680071
:1051900040F00100C0B2FFF7FBFEFFF731FF90B116
:1051A000FFF7C0FF012019E0FFF7BCFF012015E069
:1051B000FFF7B8FF012011E00120FFF789FF3070F1
:1051C000013CE4B2013634B1012CF5D00020FFF7E8
:1051D0007FFF3070F4E7FFF7A5FF2046F8BD00B56C
:1051E00083B00023ADF80430022301AA0C2136203D
:1051F000FFF7B6FF9DF804309DF8050040EA032054
:1052000000B203B05DF804FB38B54FF4FA740A4BF2
:105210001B6913F0040F0ED1013C0CD0064D4FF466
:105220000033AB610120FBF749FD0223AB61012094
:10523000FBF744FDEBE738BD0010024038B5FFF73F
:10524000E3FF0E4C4FF40035A5610120FBF736FD5E
:105250000423A3610120FBF731FD0223A361012098
:10526000FBF72CFD4FF48023A3610120FBF726FD03
:10527000A5610120FBF722FD38BD00BF00100240F0
:1052800038B50446002510E0164B4FF480229A6191
:105290006400E4B20120FBF711FD124B02229A6177
:1052A0000120FBF70BFD0135EDB2072D0DD80D4B9D
:1052B0004FF400329A610120FBF700FD14F0800FDB
:1052C000E2D0084B04229A61E2E7064C4FF4003327
:1052D000A3610120FBF7F2FC0423A3610120FBF78B
:1052E000EDFC38BD00100240F8B5104C4FF400370B
:1052F000A7610120FBF7E2FC0426A6610120FBF771
:10530000DDFC0223A3610A20FBF7D8FC25693540A8
:10531000A7610120FBF7D2FCA6610120FBF7CEFCC0
:105320000DB10120F8BD0020FCE700BF00100240D5
:1053300070B50D4C4FF40036A6610120FBF7BEFCA2
:105340000425A5610120FBF7B9FC0223A3610A2013
:10535000FBF7B4FCA6610120FBF7B0FCA5610120BE
:10536000FBF7ACFC70BD00BF0010024038B50E4C1E
:105370004FF40035A5610120FBF7A0FC4FF480231A
:10538000A3610120FBF79AFC0223A3610A20FBF72B
:1053900095FCA5610120FBF791FC0423A36101208A
:1053A000FBF78CFC38BD00BF00100240F8B5074683
:1053B0000024254608E0114B4FF400329A61012089
:1053C000FBF77CFC0134E4B2072C0ED80B4E022311
:1053D000B3610120FBF772FC6D00EDB2336913F08D
:1053E000040FE8D045F00105E5E71FB1FFF7A0FF86
:1053F0002846F8BDFFF7BAFFFAE700BF00100240E9
:1054000010B50C4C4FF40033A3610120FBF756FCA0
:105410004FF48023A3610120FBF750FC0223A3611A
:105420000120FBF74BFC0423A3610120FBF746FCA2
:1054300010BD00BF00100240F8B505460F461646E5
:105440001C46FFF7FBFE680000F0FE00FFF718FFA8
:10545000FFF74AFFA0B93846FFF712FFFFF744FFF6
:1054600090B9FFF7EBFE680040F00100C0B2FFF713
:1054700007FFFFF739FF90B1FFF7C2FF012019E0E6
:10548000FFF7BEFF012015E0FFF7BAFF012011E092
:105490000120FFF78BFF3070013CE4B2013634B1DC
:1054A000012CF5D00020FFF781FF3070F4E7FFF703
:1054B000A7FF2046F8BD00B583B00023ADF8043047
:1054C000022301AA0C213620FFF7B6FF9DF8043015
:1054D0009DF8050040EA032000B203B05DF804FB2C
:1054E000DFED1F7A20EE270AB5EEC00AF1EE10FAC2
:1054F000FDEEC07A04D517EE903A013B07EE903AE4
:10550000F8EEE77A9FED177A30EE670A20EE070A89
:10551000FCEEC07A17EE903A9BB2B3F5007F1AD238
:1055200007EE903AF8EE677A591C30EE670A0E4A99
:10553000F7EE007A02EB830302EB810293ED007A2F
:10554000D2ED006A77EEC07A20EE260A67EE877AFF
:1055500037EE800A704730EE470A01210023E6E764
:1055600083F9223E00000044A85D00082DE9F047C1
:10557000089D0E4604460F46002B4AD194468C45A2
:10558000B2FA82F260D942B1C2F12003974020FA08
:1055900003F30CFA02FC1F4394404FEA1C4E1FFA1F
:1055A0008CF6B7FBFEF1230C0EFB117743EA0743A1
:1055B00001FB06F098420AD91CEB030301F1FF3707
:1055C00080F01581984240F21281023963441B1A1F
:1055D000A4B2B3FBFEF00EFB103344EA034400FB1D
:1055E00006F6A6420AD91CEB040400F1FF3380F052
:1055F0000081A64240F2FD806444023840EA014046
:10560000A41B00211DB1D4400023C5E90043BDE81F
:10561000F0878B4205D90DB1C5E90001002108468C
:10562000F5E7B3FA83F1002946D1B34202D38242AF
:1056300000F2F580841A66EB030201201746002D64
:10564000E5D0C5E90047E2E7002A40F09380A1EBEE
:105650000C034FEA1C471FFA8CFE0121B3FBF7F63F
:1056600007FB1630230C43EA00430EFB06F098427A
:1056700008D91CEB030306F1FF3802D2984200F26E
:10568000D08046461B1AA4B2B3FBF7F007FB1033D9
:1056900044EA03440EFB00FEA64508D91CEB0404B3
:1056A00000F1FF3302D2A64500F2B6801846A4EB03
:1056B0000E0440EA0640A5E7C1F120078B4022FA1C
:1056C00007FC4CEA030C06FA01FE20FA07F426FA5E
:1056D00007F344EA0E0400FA01F84FEA1C404FEACF
:1056E0001449B3FBF0FE1FFA8CF600FB1E3349EAA7
:1056F00003430EFB06F9994502FA01F20BD91CEBA4
:1057000003030EF1FF3A80F08580994540F28280D4
:10571000AEF1020E6344A3EB0909A4B2B9FBF0F3A6
:1057200000FB139944EA094403FB06F6A64208D994
:105730001CEB040403F1FF3068D2A64266D9023B99
:10574000644443EA0E40A41BA0FB02E6B442734645
:10575000B14652D34FD05DB1B8EB030264EB0904FC
:1057600004FA07F722FA01F31F43CC40C5E900749D
:1057700000214CE7C2F1200120FA01F30CFA02FCEF
:1057800026FA01F1964033434FEA1C471FFA8CFE7C
:10579000B1FBF7F007FB1016190C41EA064100FBBC
:1057A0000EF68E4204FA02F408D91CEB010100F156
:1057B000FF382DD28E422BD902386144891B9BB20F
:1057C000B1FBF7F607FB161143EA014306FB0EF1A6
:1057D000994208D91CEB030306F1FF3814D2994211
:1057E00012D9023E63445B1A46EA004136E7394665
:1057F000EDE6184602E7F045ADD2BEEB020366EBDC
:105800000C060138B146A6E74646ECE7034698E7A2
:105810004046D3E7D6467EE76444023847E7084669
:105820000DE7023E63442DE7830730B547D0541E91
:10583000002A3ED0CAB2034601E0013C39D303F846
:10584000012B9D07F9D1032C2CD9CDB205EB0525F1
:105850000F2C05EB054535D9A4F1100222F00F0CF1
:1058600003F1100EE6444FEA121C1A46C2E9005535
:10587000C2E9025510327245F8D10CF1010214F060
:105880000C0F03EB021204F00F0C13D0ACF1040365
:1058900023F003030433134442F8045B9342FBD127
:1058A0000CF003042CB1C9B21C4403F8011BA34241
:1058B000FBD130BD64461346002CF4D1F9E7034612
:1058C0001446C0E71A46A446E0E700BF70B50F4B88
:1058D0000F4DAB42A3EB050607D0B610002455F8D8
:1058E000043B01349847A642F9D800F07FF8094DEF
:1058F000094B5E1BAB424FEAA60606D0002455F8C2
:10590000043B01349847A642F9D870BDB46500083D
:10591000B4650008B4650008BC650008704700BFA6
:10592000704700BF024B13B1024800F005B8704742
:105930000000000045590008002301461A46184699
:1059400000F014B838B5074D074C2C1BA41005D037
:10595000013C55F8043D9847002CF9D1BDE838408A
:1059600000F04AB8C0650008BC6500082DE9F8439E
:105970001B4D0646286898460F469146FFF7CEFF16
:10598000184B1C681CB3286865681F2D22DC4EB9B3
:105990006B1C0235636044F82570FFF7C1FF0020DF
:1059A000BDE8F88304EB85010123C1F88890D4F8A1
:1059B0008821AB401A43022EC4F88821C1F808811F
:1059C000E6D1D4F88C211A43C4F88C21E0E7064CC8
:1059D0001C60D8E7FFF7A4FF4FF0FF30E0E700BFFF
:1059E00014000020E8430020EC430020F8B500BF7D
:1059F000F8BC08BC9E467047F8B500BFF8BC08BCB0
:045A00009E46704707
:105A0400705A0008C14200080200000000000000B3
:105A1400000400000000000000000000645A0008B8
:105A24004D3F0008020000000000000000040000D8
:105A34000000000000000000585A0008250A000871
:105A440001000000000000008000000000000000D1
:105A5400000000006D795461736B30330000000066
:105A6400456E636F6465725461736B0055534152A4
:105A740054325F53656E645461736B0049444C4502
:105A84000000000000000000010203040000000008
:105A940000000000010203040607080900061016AE
:105AA400000610160000891112239B322446AD57BC
:105AB4003665BF74488CC19D5AAF53BE6CCAE5DBD2
:105AC4007EE9F7F88110080193331A22A5562C4772
:105AD400B7753E64C99C408DDBBF52AEEDDA64CB32
